{
  "contractName": "DKYCVerification",
  "abi": [
    {
      "inputs": [],
      "stateMutability": "nonpayable",
      "type": "constructor"
    },
    {
      "inputs": [
        {
          "internalType": "string",
          "name": "_bankName",
          "type": "string"
        },
        {
          "internalType": "address",
          "name": "_bankAddress",
          "type": "address"
        }
      ],
      "name": "addNewBank",
      "outputs": [],
      "stateMutability": "nonpayable",
      "type": "function"
    },
    {
      "inputs": [
        {
          "internalType": "address",
          "name": "_address",
          "type": "address"
        }
      ],
      "name": "getBank",
      "outputs": [
        {
          "internalType": "uint256",
          "name": "",
          "type": "uint256"
        },
        {
          "internalType": "string",
          "name": "",
          "type": "string"
        },
        {
          "internalType": "address",
          "name": "",
          "type": "address"
        }
      ],
      "stateMutability": "view",
      "type": "function"
    },
    {
      "inputs": [
        {
          "internalType": "address",
          "name": "_bankAddress",
          "type": "address"
        }
      ],
      "name": "blockBankFromKYC",
      "outputs": [
        {
          "internalType": "int256",
          "name": "",
          "type": "int256"
        }
      ],
      "stateMutability": "nonpayable",
      "type": "function"
    },
    {
      "inputs": [
        {
          "internalType": "address",
          "name": "_bankAddress",
          "type": "address"
        }
      ],
      "name": "allowBankFromKYC",
      "outputs": [
        {
          "internalType": "int256",
          "name": "",
          "type": "int256"
        }
      ],
      "stateMutability": "nonpayable",
      "type": "function"
    },
    {
      "inputs": [
        {
          "internalType": "address",
          "name": "_bankAddress",
          "type": "address"
        }
      ],
      "name": "blockBankFromAddingNewCustomers",
      "outputs": [
        {
          "internalType": "int256",
          "name": "",
          "type": "int256"
        }
      ],
      "stateMutability": "nonpayable",
      "type": "function"
    },
    {
      "inputs": [
        {
          "internalType": "address",
          "name": "_bankAddress",
          "type": "address"
        }
      ],
      "name": "allowBankFromAddingNewCustomers",
      "outputs": [
        {
          "internalType": "int256",
          "name": "",
          "type": "int256"
        }
      ],
      "stateMutability": "nonpayable",
      "type": "function"
    },
    {
      "inputs": [
        {
          "internalType": "string",
          "name": "_customerName",
          "type": "string"
        },
        {
          "internalType": "string",
          "name": "_customerData",
          "type": "string"
        }
      ],
      "name": "addNewCustomerToBank",
      "outputs": [],
      "stateMutability": "nonpayable",
      "type": "function"
    },
    {
      "inputs": [
        {
          "internalType": "string",
          "name": "_customerName",
          "type": "string"
        }
      ],
      "name": "viewCustomerData",
      "outputs": [
        {
          "internalType": "uint256",
          "name": "",
          "type": "uint256"
        },
        {
          "internalType": "string",
          "name": "",
          "type": "string"
        },
        {
          "internalType": "bool",
          "name": "",
          "type": "bool"
        }
      ],
      "stateMutability": "view",
      "type": "function"
    },
    {
      "inputs": [
        {
          "internalType": "string",
          "name": "_customerName",
          "type": "string"
        }
      ],
      "name": "addNewCustomerRequestForKYC",
      "outputs": [
        {
          "internalType": "int256",
          "name": "",
          "type": "int256"
        }
      ],
      "stateMutability": "nonpayable",
      "type": "function"
    },
    {
      "inputs": [
        {
          "internalType": "string",
          "name": "_customerName",
          "type": "string"
        }
      ],
      "name": "getCustomerKycStatus",
      "outputs": [
        {
          "internalType": "bool",
          "name": "",
          "type": "bool"
        }
      ],
      "stateMutability": "view",
      "type": "function"
    },
    {
      "inputs": [],
      "name": "getContractOwner",
      "outputs": [
        {
          "internalType": "address",
          "name": "",
          "type": "address"
        }
      ],
      "stateMutability": "view",
      "type": "function"
    }
  ],
  "bytecode": "0x608060405234801561001057600080fd5b506100203361002d60201b60201c565b6064600181905550610070565b806000806101000a81548173ffffffffffffffffffffffffffffffffffffffff021916908373ffffffffffffffffffffffffffffffffffffffff16021790555050565b6120718061007f6000396000f3fe608060405234801561001057600080fd5b50600436106100a95760003560e01c8063706312cf11610071578063706312cf1461017a578063761055161461019657806383e0c31d146101c65780639de31c97146101f8578063a1b72d1d14610228578063ad23d42c14610258576100a9565b80632114e478146100ae578063284d250a146100de5780632a5e3bb0146100fa578063442890d51461012a5780634a6c2f6114610148575b600080fd5b6100c860048036038101906100c3919061166a565b610288565b6040516100d591906116cc565b60405180910390f35b6100f860048036038101906100f391906116e7565b6103b4565b005b610114600480360381019061010f91906117bd565b61065d565b60405161012191906116cc565b60405180910390f35b6101326107d8565b60405161013f91906117f9565b60405180910390f35b610162600480360381019061015d919061166a565b610801565b604051610171939291906118d0565b60405180910390f35b610194600480360381019061018f919061190e565b610976565b005b6101b060048036038101906101ab919061166a565b610c8d565b6040516101bd919061196a565b60405180910390f35b6101e060048036038101906101db91906117bd565b610d29565b6040516101ef93929190611985565b60405180910390f35b610212600480360381019061020d91906117bd565b610eb0565b60405161021f91906116cc565b60405180910390f35b610242600480360381019061023d91906117bd565b61102b565b60405161024f91906116cc565b60405180910390f35b610272600480360381019061026d91906117bd565b611235565b60405161027f91906116cc565b60405180910390f35b6000600360003373ffffffffffffffffffffffffffffffffffffffff1673ffffffffffffffffffffffffffffffffffffffff16815260200190815260200160002060030160159054906101000a900460ff16610319576040517f08c379a000000000000000000000000000000000000000000000000000000000815260040161031090611a35565b60405180910390fd5b600160048360405161032b9190611a91565b908152602001604051809103902060030160146101000a81548160ff021916908315150217905550600360003373ffffffffffffffffffffffffffffffffffffffff1673ffffffffffffffffffffffffffffffffffffffff16815260200190815260200160002060020160008154809291906103a690611ad7565b919050555060019050919050565b600360003373ffffffffffffffffffffffffffffffffffffffff1673ffffffffffffffffffffffffffffffffffffffff16815260200190815260200160002060030160149054906101000a900460ff16610443576040517f08c379a000000000000000000000000000000000000000000000000000000000815260040161043a90611b92565b60405180910390fd5b6104f66004836040516104569190611a91565b9081526020016040518091039020600101805461047290611be1565b80601f016020809104026020016040519081016040528092919081815260200182805461049e90611be1565b80156104eb5780601f106104c0576101008083540402835291602001916104eb565b820191906000526020600020905b8154815290600101906020018083116104ce57829003601f168201915b50505050508361143f565b15610536576040517f08c379a000000000000000000000000000000000000000000000000000000000815260040161052d90611c5f565b60405180910390fd5b60046001546105459190611c7f565b6001819055506040518060a0016040528060015481526020018381526020018281526020013373ffffffffffffffffffffffffffffffffffffffff1681526020016000151581525060048360405161059d9190611a91565b90815260200160405180910390206000820151816000015560208201518160010190805190602001906105d192919061146d565b5060408201518160020190805190602001906105ee92919061146d565b5060608201518160030160006101000a81548173ffffffffffffffffffffffffffffffffffffffff021916908373ffffffffffffffffffffffffffffffffffffffff16021790555060808201518160030160146101000a81548160ff0219169083151502179055509050505050565b60008060009054906101000a900473ffffffffffffffffffffffffffffffffffffffff1673ffffffffffffffffffffffffffffffffffffffff163373ffffffffffffffffffffffffffffffffffffffff16146106ee576040517f08c379a00000000000000000000000000000000000000000000000000000000081526004016106e590611d47565b60405180910390fd5b6000600360008473ffffffffffffffffffffffffffffffffffffffff1673ffffffffffffffffffffffffffffffffffffffff168152602001908152602001600020600001541415610774576040517f08c379a000000000000000000000000000000000000000000000000000000000815260040161076b90611db3565b60405180910390fd5b6001600360008473ffffffffffffffffffffffffffffffffffffffff1673ffffffffffffffffffffffffffffffffffffffff16815260200190815260200160002060030160156101000a81548160ff02191690831515021790555060019050919050565b60008060009054906101000a900473ffffffffffffffffffffffffffffffffffffffff16905090565b600060606000806004856040516108189190611a91565b908152602001604051809103902060000154141561086b576040517f08c379a000000000000000000000000000000000000000000000000000000000815260040161086290611e1f565b60405180910390fd5b60048460405161087b9190611a91565b90815260200160405180910390206000015460048560405161089d9190611a91565b90815260200160405180910390206002016004866040516108be9190611a91565b908152602001604051809103902060030160149054906101000a900460ff168180546108e990611be1565b80601f016020809104026020016040519081016040528092919081815260200182805461091590611be1565b80156109625780601f1061093757610100808354040283529160200191610962565b820191906000526020600020905b81548152906001019060200180831161094557829003601f168201915b505050505091509250925092509193909250565b60008054906101000a900473ffffffffffffffffffffffffffffffffffffffff1673ffffffffffffffffffffffffffffffffffffffff163373ffffffffffffffffffffffffffffffffffffffff1614610a04576040517f08c379a00000000000000000000000000000000000000000000000000000000081526004016109fb90611d47565b60405180910390fd5b610ad8600360008373ffffffffffffffffffffffffffffffffffffffff1673ffffffffffffffffffffffffffffffffffffffff1681526020019081526020016000206001018054610a5490611be1565b80601f0160208091040260200160405190810160405280929190818152602001828054610a8090611be1565b8015610acd5780601f10610aa257610100808354040283529160200191610acd565b820191906000526020600020905b815481529060010190602001808311610ab057829003601f168201915b50505050508361143f565b15610b18576040517f08c379a0000000000000000000000000000000000000000000000000000000008152600401610b0f90611e8b565b60405180910390fd5b6004600154610b279190611c7f565b6001819055506001600254610b3c9190611c7f565b6002819055506040518060c00160405280600154815260200183815260200160025481526020018273ffffffffffffffffffffffffffffffffffffffff16815260200160011515815260200160011515815250600360008373ffffffffffffffffffffffffffffffffffffffff1673ffffffffffffffffffffffffffffffffffffffff168152602001908152602001600020600082015181600001556020820151816001019080519060200190610bf492919061146d565b506040820151816002015560608201518160030160006101000a81548173ffffffffffffffffffffffffffffffffffffffff021916908373ffffffffffffffffffffffffffffffffffffffff16021790555060808201518160030160146101000a81548160ff02191690831515021790555060a08201518160030160156101000a81548160ff0219169083151502179055509050505050565b600080600483604051610ca09190611a91565b9081526020016040518091039020600001541415610cf3576040517f08c379a0000000000000000000000000000000000000000000000000000000008152600401610cea90611ef7565b60405180910390fd5b600482604051610d039190611a91565b908152602001604051809103902060030160149054906101000a900460ff169050919050565b600060606000600360008573ffffffffffffffffffffffffffffffffffffffff1673ffffffffffffffffffffffffffffffffffffffff16815260200190815260200160002060000154600360008673ffffffffffffffffffffffffffffffffffffffff1673ffffffffffffffffffffffffffffffffffffffff168152602001908152602001600020600101600360008773ffffffffffffffffffffffffffffffffffffffff1673ffffffffffffffffffffffffffffffffffffffff16815260200190815260200160002060030160009054906101000a900473ffffffffffffffffffffffffffffffffffffffff16818054610e2390611be1565b80601f0160208091040260200160405190810160405280929190818152602001828054610e4f90611be1565b8015610e9c5780601f10610e7157610100808354040283529160200191610e9c565b820191906000526020600020905b815481529060010190602001808311610e7f57829003601f168201915b505050505091509250925092509193909250565b60008060009054906101000a900473ffffffffffffffffffffffffffffffffffffffff1673ffffffffffffffffffffffffffffffffffffffff163373ffffffffffffffffffffffffffffffffffffffff1614610f41576040517f08c379a0000000000000000000000000000000000000000000000000000000008152600401610f3890611d47565b60405180910390fd5b6000600360008473ffffffffffffffffffffffffffffffffffffffff1673ffffffffffffffffffffffffffffffffffffffff168152602001908152602001600020600001541415610fc7576040517f08c379a0000000000000000000000000000000000000000000000000000000008152600401610fbe90611db3565b60405180910390fd5b6000600360008473ffffffffffffffffffffffffffffffffffffffff1673ffffffffffffffffffffffffffffffffffffffff16815260200190815260200160002060030160156101000a81548160ff02191690831515021790555060019050919050565b60008060009054906101000a900473ffffffffffffffffffffffffffffffffffffffff1673ffffffffffffffffffffffffffffffffffffffff163373ffffffffffffffffffffffffffffffffffffffff16146110bc576040517f08c379a00000000000000000000000000000000000000000000000000000000081526004016110b390611d47565b60405180910390fd5b6000600360008473ffffffffffffffffffffffffffffffffffffffff1673ffffffffffffffffffffffffffffffffffffffff168152602001908152602001600020600001541415611142576040517f08c379a000000000000000000000000000000000000000000000000000000000815260040161113990611db3565b60405180910390fd5b600360008373ffffffffffffffffffffffffffffffffffffffff1673ffffffffffffffffffffffffffffffffffffffff16815260200190815260200160002060030160149054906101000a900460ff166111d1576040517f08c379a00000000000000000000000000000000000000000000000000000000081526004016111c890611f89565b60405180910390fd5b6001600360008473ffffffffffffffffffffffffffffffffffffffff1673ffffffffffffffffffffffffffffffffffffffff16815260200190815260200160002060030160146101000a81548160ff02191690831515021790555060019050919050565b60008060009054906101000a900473ffffffffffffffffffffffffffffffffffffffff1673ffffffffffffffffffffffffffffffffffffffff163373ffffffffffffffffffffffffffffffffffffffff16146112c6576040517f08c379a00000000000000000000000000000000000000000000000000000000081526004016112bd90611d47565b60405180910390fd5b6000600360008473ffffffffffffffffffffffffffffffffffffffff1673ffffffffffffffffffffffffffffffffffffffff16815260200190815260200160002060000154141561134c576040517f08c379a000000000000000000000000000000000000000000000000000000000815260040161134390611db3565b60405180910390fd5b600360008373ffffffffffffffffffffffffffffffffffffffff1673ffffffffffffffffffffffffffffffffffffffff16815260200190815260200160002060030160149054906101000a900460ff166113db576040517f08c379a00000000000000000000000000000000000000000000000000000000081526004016113d29061201b565b60405180910390fd5b6000600360008473ffffffffffffffffffffffffffffffffffffffff1673ffffffffffffffffffffffffffffffffffffffff16815260200190815260200160002060030160146101000a81548160ff02191690831515021790555060019050919050565b600081518351146114535760009050611467565b818051906020012083805190602001201490505b92915050565b82805461147990611be1565b90600052602060002090601f01602090048101928261149b57600085556114e2565b82601f106114b457805160ff19168380011785556114e2565b828001600101855582156114e2579182015b828111156114e15782518255916020019190600101906114c6565b5b5090506114ef91906114f3565b5090565b5b8082111561150c5760008160009055506001016114f4565b5090565b6000604051905090565b600080fd5b600080fd5b600080fd5b600080fd5b6000601f19601f8301169050919050565b7f4e487b7100000000000000000000000000000000000000000000000000000000600052604160045260246000fd5b6115778261152e565b810181811067ffffffffffffffff821117156115965761159561153f565b5b80604052505050565b60006115a9611510565b90506115b5828261156e565b919050565b600067ffffffffffffffff8211156115d5576115d461153f565b5b6115de8261152e565b9050602081019050919050565b82818337600083830152505050565b600061160d611608846115ba565b61159f565b90508281526020810184848401111561162957611628611529565b5b6116348482856115eb565b509392505050565b600082601f83011261165157611650611524565b5b81356116618482602086016115fa565b91505092915050565b6000602082840312156116805761167f61151a565b5b600082013567ffffffffffffffff81111561169e5761169d61151f565b5b6116aa8482850161163c565b91505092915050565b6000819050919050565b6116c6816116b3565b82525050565b60006020820190506116e160008301846116bd565b92915050565b600080604083850312156116fe576116fd61151a565b5b600083013567ffffffffffffffff81111561171c5761171b61151f565b5b6117288582860161163c565b925050602083013567ffffffffffffffff8111156117495761174861151f565b5b6117558582860161163c565b9150509250929050565b600073ffffffffffffffffffffffffffffffffffffffff82169050919050565b600061178a8261175f565b9050919050565b61179a8161177f565b81146117a557600080fd5b50565b6000813590506117b781611791565b92915050565b6000602082840312156117d3576117d261151a565b5b60006117e1848285016117a8565b91505092915050565b6117f38161177f565b82525050565b600060208201905061180e60008301846117ea565b92915050565b6000819050919050565b61182781611814565b82525050565b600081519050919050565b600082825260208201905092915050565b60005b8381101561186757808201518184015260208101905061184c565b83811115611876576000848401525b50505050565b60006118878261182d565b6118918185611838565b93506118a1818560208601611849565b6118aa8161152e565b840191505092915050565b60008115159050919050565b6118ca816118b5565b82525050565b60006060820190506118e5600083018661181e565b81810360208301526118f7818561187c565b905061190660408301846118c1565b949350505050565b600080604083850312156119255761192461151a565b5b600083013567ffffffffffffffff8111156119435761194261151f565b5b61194f8582860161163c565b9250506020611960858286016117a8565b9150509250929050565b600060208201905061197f60008301846118c1565b92915050565b600060608201905061199a600083018661181e565b81810360208301526119ac818561187c565b90506119bb60408301846117ea565b949350505050565b7f5265717565737465642042616e6b206861766520616c7265616479206163746960008201527f7661746564204b59432050726976696c65676500000000000000000000000000602082015250565b6000611a1f603383611838565b9150611a2a826119c3565b604082019050919050565b60006020820190508181036000830152611a4e81611a12565b9050919050565b600081905092915050565b6000611a6b8261182d565b611a758185611a55565b9350611a85818560208601611849565b80840191505092915050565b6000611a9d8284611a60565b915081905092915050565b7f4e487b7100000000000000000000000000000000000000000000000000000000600052601160045260246000fd5b6000611ae282611814565b91507fffffffffffffffffffffffffffffffffffffffffffffffffffffffffffffffff821415611b1557611b14611aa8565b5b600182019050919050565b7f5265717565737465642042616e6b20697320626c6f636b656420616464696e6760008201527f206e657720637573746f6d657273000000000000000000000000000000000000602082015250565b6000611b7c602e83611838565b9150611b8782611b20565b604082019050919050565b60006020820190508181036000830152611bab81611b6f565b9050919050565b7f4e487b7100000000000000000000000000000000000000000000000000000000600052602260045260246000fd5b60006002820490506001821680611bf957607f821691505b60208210811415611c0d57611c0c611bb2565b5b50919050565b7f52657175657374656420437573746f6d65722065786973747300000000000000600082015250565b6000611c49601983611838565b9150611c5482611c13565b602082019050919050565b60006020820190508181036000830152611c7881611c3c565b9050919050565b6000611c8a82611814565b9150611c9583611814565b9250827fffffffffffffffffffffffffffffffffffffffffffffffffffffffffffffffff03821115611cca57611cc9611aa8565b5b828201905092915050565b7f4966207468652063616c6c6572206973206e6f7420636f6e7472616374206f7760008201527f6e65720000000000000000000000000000000000000000000000000000000000602082015250565b6000611d31602383611838565b9150611d3c82611cd5565b604082019050919050565b60006020820190508181036000830152611d6081611d24565b9050919050565b7f42616e6b2064657461696c73206e6f7420666f756e6400000000000000000000600082015250565b6000611d9d601683611838565b9150611da882611d67565b602082019050919050565b60006020820190508181036000830152611dcc81611d90565b9050919050565b7f52657175657374656420437573746f6d6572206e6f7420666f756e6400000000600082015250565b6000611e09601c83611838565b9150611e1482611dd3565b602082019050919050565b60006020820190508181036000830152611e3881611dfc565b9050919050565b7f5468697320746f6b656e20616c72656164792065786973747300000000000000600082015250565b6000611e75601983611838565b9150611e8082611e3f565b602082019050919050565b60006020820190508181036000830152611ea481611e68565b9050919050565b7f52657175657374656420437573746f6d6572206973206e6f7420616464656400600082015250565b6000611ee1601f83611838565b9150611eec82611eab565b602082019050919050565b60006020820190508181036000830152611f1081611ed4565b9050919050565b7f5265717565737465642042616e6b20697320616c726561647920756e626c6f6360008201527f6b65640000000000000000000000000000000000000000000000000000000000602082015250565b6000611f73602383611838565b9150611f7e82611f17565b604082019050919050565b60006020820190508181036000830152611fa281611f66565b9050919050565b7f5265717565737465642042616e6b20697320616c726561647920626c6f636b6560008201527f6400000000000000000000000000000000000000000000000000000000000000602082015250565b6000612005602183611838565b915061201082611fa9565b604082019050919050565b6000602082019050818103600083015261203481611ff8565b905091905056fea2646970667358221220c9ed8f470d90e95574f559cbedcd6fdce560b0fb95404e8347863d46f7c0bfd564736f6c634300080b0033",
  "immutableReferences": {},
  "source": "// SPDX-License-Identifier: MIT\npragma solidity >=0.4.22 <0.9.0;\n\ncontract DKYCVerification {\n    //'_owner' variable of type address with a public getter function\n    address private _owner;\n    // number of the total bank + kycCounter\n    uint256 private randomOne;\n    uint256 private kycCounter;\n\n    constructor() {\n        setContractOwner(msg.sender);\n        randomOne = 100;\n    }\n\n    // create an 'onlyOwner' modifier that throws if called by any account other than the owner.\n    modifier onlyOwner() {\n        require(msg.sender == _owner, \"If the caller is not contract owner\");\n        _;\n    }\n\n    // Bank struct\n    struct Bank {\n        uint256 bankNumber;\n        string bankName;\n        uint256 kycCounter;\n        address bankAddress;\n        bool isAllowedToAddCustomer;\n        bool kycPrivilege;\n    }\n\n    // Customer struct\n    struct Customer {\n        uint256 customerNumber;\n        string customerName;\n        string customerData;\n        address customerBank;\n        bool kycStatus;\n    }\n\n    mapping(address => Bank) private _bank; //  Mapping a bank's address to the Bank\n    mapping(string => Customer) private _customerInfo; //  Mapping a customer's username to the Customer\n\n    // addNewBank\n    function addNewBank(string memory _bankName, address _bankAddress)\n        public\n        onlyOwner\n    {\n        require(\n            !_check(_bank[_bankAddress].bankName, _bankName),\n            \"This token already exists\"\n        );\n        randomOne = randomOne + 4;\n        kycCounter = kycCounter + 1;\n\n        _bank[_bankAddress] = Bank({\n            bankNumber: randomOne,\n            bankName: _bankName,\n            kycCounter: kycCounter,\n            bankAddress: _bankAddress,\n            isAllowedToAddCustomer: true,\n            kycPrivilege: true\n        });\n    }\n\n    //getBank\n    function getBank(address _address)\n        public\n        view\n        returns (\n            uint256,\n            string memory,\n            address\n        )\n    {\n        return (\n            _bank[_address].bankNumber,\n            _bank[_address].bankName,\n            _bank[_address].bankAddress\n        );\n    }\n\n    // blockBankFromKYC\n    function blockBankFromKYC(address _bankAddress)\n        public\n        onlyOwner\n        returns (int256)\n    {\n        require(_bank[_bankAddress].bankNumber != 0, \"Bank details not found\");\n        _bank[_bankAddress].kycPrivilege = false;\n        return 1;\n    }\n\n    //allowBankFromKYC\n    function allowBankFromKYC(address _bankAddress)\n        public\n        onlyOwner\n        returns (int256)\n    {\n        require(_bank[_bankAddress].bankNumber != 0, \"Bank details not found\");\n        _bank[_bankAddress].kycPrivilege = true;\n        return 1;\n    }\n\n    // blockBankFromAddingNewCustomers\n\n    function blockBankFromAddingNewCustomers(address _bankAddress)\n        public\n        onlyOwner\n        returns (int256)\n    {\n        require(_bank[_bankAddress].bankNumber != 0, \"Bank details not found\");\n        require(\n            _bank[_bankAddress].isAllowedToAddCustomer,\n            \"Requested Bank is already blocked\"\n        );\n        _bank[_bankAddress].isAllowedToAddCustomer = false;\n        return 1;\n    }\n\n    //allowBankFromAddingNewCustomers\n\n    function allowBankFromAddingNewCustomers(address _bankAddress)\n        public\n        onlyOwner\n        returns (int256)\n    {\n        require(_bank[_bankAddress].bankNumber != 0, \"Bank details not found\");\n        require(\n            _bank[_bankAddress].isAllowedToAddCustomer,\n            \"Requested Bank is already unblocked\"\n        );\n        _bank[_bankAddress].isAllowedToAddCustomer = true;\n        return 1;\n    }\n\n    //addNewCustomerToBank\n\n    function addNewCustomerToBank(\n        string memory _customerName,\n        string memory _customerData\n    ) public {\n        require(\n            _bank[msg.sender].isAllowedToAddCustomer,\n            \"Requested Bank is blocked adding new customers\"\n        );\n\n        require(\n            !_check(_customerInfo[_customerName].customerName, _customerName),\n            \"Requested Customer exists\"\n        );\n        randomOne = randomOne + 4;\n\n        _customerInfo[_customerName] = Customer({\n            customerNumber: randomOne,\n            customerName: _customerName,\n            customerData: _customerData,\n            customerBank: msg.sender,\n            kycStatus: false\n        });\n    }\n\n    //viewCustomerData\n    function viewCustomerData(string memory _customerName)\n        public\n        view\n        returns (\n            uint256,\n            string memory,\n            bool\n        )\n    {\n        require(\n            _customerInfo[_customerName].customerNumber != 0,\n            \"Requested Customer not found\"\n        );\n        return (\n            _customerInfo[_customerName].customerNumber,\n            _customerInfo[_customerName].customerData,\n            _customerInfo[_customerName].kycStatus\n        );\n    }\n\n    //addNewCustomerRequestForKYC\n\n    function addNewCustomerRequestForKYC(string memory _customerName)\n        public\n        returns (int256)\n    {\n        require(\n            _bank[msg.sender].kycPrivilege,\n            \"Requested Bank have already activated KYC Privilege\"\n        );\n        _customerInfo[_customerName].kycStatus = true;\n        _bank[msg.sender].kycCounter++;\n\n        return 1;\n    }\n\n    //getCustomerKycStatus\n    function getCustomerKycStatus(string memory _customerName)\n        public\n        view\n        returns (bool)\n    {\n        require(\n            _customerInfo[_customerName].customerNumber != 0,\n            \"Requested Customer is not added\"\n        );\n        return (_customerInfo[_customerName].kycStatus);\n    }\n\n    //getContractOwner\n    function getContractOwner() public view returns (address) {\n        return _owner;\n    }\n\n    //setContractOwner\n    function setContractOwner(address newOwner) private {\n        _owner = newOwner;\n    }\n\n    // checkBank\n    function _check(string memory _a, string memory _b)\n        private\n        pure\n        returns (bool)\n    {\n        if (bytes(_a).length != bytes(_b).length) {\n            return false;\n        } else {\n            return keccak256(bytes(_a)) == keccak256(bytes(_b));\n        }\n    }\n}\n",
  "sourcePath": "/Users/santuroy/iit/capstone-project/kyc-verification/contracts/DKYCVerification.sol",
  "compiler": {
    "name": "solc",
    "version": "0.8.11+commit.d7f03943.Emscripten.clang"
  },
  "schemaVersion": "3.4.4",
  "updatedAt": "2022-04-13T13:12:40.072Z",
  "devdoc": {
    "kind": "dev",
    "methods": {},
    "version": 1
  },
  "userdoc": {
    "kind": "user",
    "methods": {},
    "version": 1
  }
}