{
  "contractName": "DKYCVerification",
  "abi": [
    {
      "inputs": [],
      "stateMutability": "nonpayable",
      "type": "constructor"
    },
    {
      "inputs": [
        {
          "internalType": "string",
          "name": "_bankName",
          "type": "string"
        },
        {
          "internalType": "address",
          "name": "_bankAddress",
          "type": "address"
        }
      ],
      "name": "addNewBank",
      "outputs": [],
      "stateMutability": "nonpayable",
      "type": "function"
    },
    {
      "inputs": [
        {
          "internalType": "address",
          "name": "_bankAddress",
          "type": "address"
        }
      ],
      "name": "blockBankFromKYC",
      "outputs": [
        {
          "internalType": "int256",
          "name": "",
          "type": "int256"
        }
      ],
      "stateMutability": "nonpayable",
      "type": "function"
    },
    {
      "inputs": [
        {
          "internalType": "address",
          "name": "_bankAddress",
          "type": "address"
        }
      ],
      "name": "allowBankFromKYC",
      "outputs": [
        {
          "internalType": "int256",
          "name": "",
          "type": "int256"
        }
      ],
      "stateMutability": "nonpayable",
      "type": "function"
    },
    {
      "inputs": [
        {
          "internalType": "address",
          "name": "_bankAddress",
          "type": "address"
        }
      ],
      "name": "blockBankFromAddingNewCustomers",
      "outputs": [
        {
          "internalType": "int256",
          "name": "",
          "type": "int256"
        }
      ],
      "stateMutability": "nonpayable",
      "type": "function"
    },
    {
      "inputs": [
        {
          "internalType": "address",
          "name": "_bankAddress",
          "type": "address"
        }
      ],
      "name": "allowBankFromAddingNewCustomers",
      "outputs": [
        {
          "internalType": "int256",
          "name": "",
          "type": "int256"
        }
      ],
      "stateMutability": "nonpayable",
      "type": "function"
    },
    {
      "inputs": [
        {
          "internalType": "string",
          "name": "_customerName",
          "type": "string"
        },
        {
          "internalType": "string",
          "name": "_customerData",
          "type": "string"
        }
      ],
      "name": "addNewCustomerToBank",
      "outputs": [],
      "stateMutability": "nonpayable",
      "type": "function"
    },
    {
      "inputs": [
        {
          "internalType": "string",
          "name": "_customerName",
          "type": "string"
        }
      ],
      "name": "viewCustomerData",
      "outputs": [
        {
          "internalType": "string",
          "name": "",
          "type": "string"
        },
        {
          "internalType": "bool",
          "name": "",
          "type": "bool"
        }
      ],
      "stateMutability": "view",
      "type": "function",
      "constant": true
    },
    {
      "inputs": [
        {
          "internalType": "string",
          "name": "_customerName",
          "type": "string"
        }
      ],
      "name": "addNewCustomerRequestForKYC",
      "outputs": [
        {
          "internalType": "int256",
          "name": "",
          "type": "int256"
        }
      ],
      "stateMutability": "nonpayable",
      "type": "function"
    },
    {
      "inputs": [
        {
          "internalType": "string",
          "name": "_customerName",
          "type": "string"
        }
      ],
      "name": "getCustomerKycStatus",
      "outputs": [
        {
          "internalType": "bool",
          "name": "",
          "type": "bool"
        }
      ],
      "stateMutability": "view",
      "type": "function",
      "constant": true
    },
    {
      "inputs": [],
      "name": "getContractOwner",
      "outputs": [
        {
          "internalType": "address",
          "name": "",
          "type": "address"
        }
      ],
      "stateMutability": "view",
      "type": "function",
      "constant": true
    }
  ],
  "bytecode": "0x608060405234801561001057600080fd5b506100203361002560201b60201c565b610068565b806000806101000a81548173ffffffffffffffffffffffffffffffffffffffff021916908373ffffffffffffffffffffffffffffffffffffffff16021790555050565b611e7c806100776000396000f3fe608060405234801561001057600080fd5b506004361061009e5760003560e01c8063706312cf11610066578063706312cf1461016e578063761055161461018a5780639de31c97146101ba578063a1b72d1d146101ea578063ad23d42c1461021a5761009e565b80632114e478146100a3578063284d250a146100d35780632a5e3bb0146100ef578063442890d51461011f5780634a6c2f611461013d575b600080fd5b6100bd60048036038101906100b891906115b8565b61024a565b6040516100ca919061161a565b60405180910390f35b6100ed60048036038101906100e89190611635565b610376565b005b6101096004803603810190610104919061170b565b6105b5565b604051610116919061161a565b60405180910390f35b61012761077c565b6040516101349190611747565b60405180910390f35b610157600480360381019061015291906115b8565b6107a5565b604051610165929190611805565b60405180910390f35b61018860048036038101906101839190611835565b61093e565b005b6101a4600480360381019061019f91906115b8565b610c32565b6040516101b19190611891565b60405180910390f35b6101d460048036038101906101cf919061170b565b610d1a565b6040516101e1919061161a565b60405180910390f35b61020460048036038101906101ff919061170b565b610ee1565b604051610211919061161a565b60405180910390f35b610234600480360381019061022f919061170b565b611137565b604051610241919061161a565b60405180910390f35b6000600260003373ffffffffffffffffffffffffffffffffffffffff1673ffffffffffffffffffffffffffffffffffffffff16815260200190815260200160002060020160159054906101000a900460ff166102db576040517f08c379a00000000000000000000000000000000000000000000000000000000081526004016102d29061191e565b60405180910390fd5b60016003836040516102ed919061197a565b908152602001604051809103902060020160146101000a81548160ff021916908315150217905550600260003373ffffffffffffffffffffffffffffffffffffffff1673ffffffffffffffffffffffffffffffffffffffff1681526020019081526020016000206001016000815480929190610368906119ca565b919050555060019050919050565b600260003373ffffffffffffffffffffffffffffffffffffffff1673ffffffffffffffffffffffffffffffffffffffff16815260200190815260200160002060020160149054906101000a900460ff16610405576040517f08c379a00000000000000000000000000000000000000000000000000000000081526004016103fc90611a85565b60405180910390fd5b600073ffffffffffffffffffffffffffffffffffffffff1660038360405161042d919061197a565b908152602001604051809103902060020160009054906101000a900473ffffffffffffffffffffffffffffffffffffffff1673ffffffffffffffffffffffffffffffffffffffff16146104b5576040517f08c379a00000000000000000000000000000000000000000000000000000000081526004016104ac90611af1565b60405180910390fd5b60405180608001604052808381526020018281526020013373ffffffffffffffffffffffffffffffffffffffff168152602001600015158152506003836040516104ff919061197a565b908152602001604051809103902060008201518160000190805190602001906105299291906113bb565b5060208201518160010190805190602001906105469291906113bb565b5060408201518160020160006101000a81548173ffffffffffffffffffffffffffffffffffffffff021916908373ffffffffffffffffffffffffffffffffffffffff16021790555060608201518160020160146101000a81548160ff0219169083151502179055509050505050565b60008060009054906101000a900473ffffffffffffffffffffffffffffffffffffffff1673ffffffffffffffffffffffffffffffffffffffff163373ffffffffffffffffffffffffffffffffffffffff1614610646576040517f08c379a000000000000000000000000000000000000000000000000000000000815260040161063d90611b83565b60405180910390fd5b600073ffffffffffffffffffffffffffffffffffffffff16600260008473ffffffffffffffffffffffffffffffffffffffff1673ffffffffffffffffffffffffffffffffffffffff16815260200190815260200160002060020160009054906101000a900473ffffffffffffffffffffffffffffffffffffffff1673ffffffffffffffffffffffffffffffffffffffff161415610718576040517f08c379a000000000000000000000000000000000000000000000000000000000815260040161070f90611bef565b60405180910390fd5b6001600260008473ffffffffffffffffffffffffffffffffffffffff1673ffffffffffffffffffffffffffffffffffffffff16815260200190815260200160002060020160156101000a81548160ff02191690831515021790555060019050919050565b60008060009054906101000a900473ffffffffffffffffffffffffffffffffffffffff16905090565b606060008073ffffffffffffffffffffffffffffffffffffffff166003846040516107d0919061197a565b908152602001604051809103902060020160009054906101000a900473ffffffffffffffffffffffffffffffffffffffff1673ffffffffffffffffffffffffffffffffffffffff161415610859576040517f08c379a000000000000000000000000000000000000000000000000000000000815260040161085090611c5b565b60405180910390fd5b600383604051610869919061197a565b908152602001604051809103902060010160038460405161088a919061197a565b908152602001604051809103902060020160149054906101000a900460ff168180546108b590611caa565b80601f01602080910402602001604051908101604052809291908181526020018280546108e190611caa565b801561092e5780601f106109035761010080835404028352916020019161092e565b820191906000526020600020905b81548152906001019060200180831161091157829003601f168201915b5050505050915091509150915091565b60008054906101000a900473ffffffffffffffffffffffffffffffffffffffff1673ffffffffffffffffffffffffffffffffffffffff163373ffffffffffffffffffffffffffffffffffffffff16146109cc576040517f08c379a00000000000000000000000000000000000000000000000000000000081526004016109c390611b83565b60405180910390fd5b610aa0600260008373ffffffffffffffffffffffffffffffffffffffff1673ffffffffffffffffffffffffffffffffffffffff1681526020019081526020016000206000018054610a1c90611caa565b80601f0160208091040260200160405190810160405280929190818152602001828054610a4890611caa565b8015610a955780601f10610a6a57610100808354040283529160200191610a95565b820191906000526020600020905b815481529060010190602001808311610a7857829003601f168201915b50505050508361138d565b610adf576040517f08c379a0000000000000000000000000000000000000000000000000000000008152600401610ad690611d28565b60405180910390fd5b600060016000815480929190610af4906119ca565b9190505590506040518060a001604052808481526020018281526020018373ffffffffffffffffffffffffffffffffffffffff16815260200160011515815260200160011515815250600260008473ffffffffffffffffffffffffffffffffffffffff1673ffffffffffffffffffffffffffffffffffffffff1681526020019081526020016000206000820151816000019080519060200190610b989291906113bb565b506020820151816001015560408201518160020160006101000a81548173ffffffffffffffffffffffffffffffffffffffff021916908373ffffffffffffffffffffffffffffffffffffffff16021790555060608201518160020160146101000a81548160ff02191690831515021790555060808201518160020160156101000a81548160ff021916908315150217905550905050505050565b60008073ffffffffffffffffffffffffffffffffffffffff16600383604051610c5b919061197a565b908152602001604051809103902060020160009054906101000a900473ffffffffffffffffffffffffffffffffffffffff1673ffffffffffffffffffffffffffffffffffffffff161415610ce4576040517f08c379a0000000000000000000000000000000000000000000000000000000008152600401610cdb90611d94565b60405180910390fd5b600382604051610cf4919061197a565b908152602001604051809103902060020160149054906101000a900460ff169050919050565b60008060009054906101000a900473ffffffffffffffffffffffffffffffffffffffff1673ffffffffffffffffffffffffffffffffffffffff163373ffffffffffffffffffffffffffffffffffffffff1614610dab576040517f08c379a0000000000000000000000000000000000000000000000000000000008152600401610da290611b83565b60405180910390fd5b600073ffffffffffffffffffffffffffffffffffffffff16600260008473ffffffffffffffffffffffffffffffffffffffff1673ffffffffffffffffffffffffffffffffffffffff16815260200190815260200160002060020160009054906101000a900473ffffffffffffffffffffffffffffffffffffffff1673ffffffffffffffffffffffffffffffffffffffff161415610e7d576040517f08c379a0000000000000000000000000000000000000000000000000000000008152600401610e7490611bef565b60405180910390fd5b6000600260008473ffffffffffffffffffffffffffffffffffffffff1673ffffffffffffffffffffffffffffffffffffffff16815260200190815260200160002060020160156101000a81548160ff02191690831515021790555060019050919050565b60008060009054906101000a900473ffffffffffffffffffffffffffffffffffffffff1673ffffffffffffffffffffffffffffffffffffffff163373ffffffffffffffffffffffffffffffffffffffff1614610f72576040517f08c379a0000000000000000000000000000000000000000000000000000000008152600401610f6990611b83565b60405180910390fd5b600073ffffffffffffffffffffffffffffffffffffffff16600260008473ffffffffffffffffffffffffffffffffffffffff1673ffffffffffffffffffffffffffffffffffffffff16815260200190815260200160002060020160009054906101000a900473ffffffffffffffffffffffffffffffffffffffff1673ffffffffffffffffffffffffffffffffffffffff161415611044576040517f08c379a000000000000000000000000000000000000000000000000000000000815260040161103b90611bef565b60405180910390fd5b600260008373ffffffffffffffffffffffffffffffffffffffff1673ffffffffffffffffffffffffffffffffffffffff16815260200190815260200160002060020160149054906101000a900460ff166110d3576040517f08c379a00000000000000000000000000000000000000000000000000000000081526004016110ca90611e26565b60405180910390fd5b6001600260008473ffffffffffffffffffffffffffffffffffffffff1673ffffffffffffffffffffffffffffffffffffffff16815260200190815260200160002060020160146101000a81548160ff02191690831515021790555060019050919050565b60008060009054906101000a900473ffffffffffffffffffffffffffffffffffffffff1673ffffffffffffffffffffffffffffffffffffffff163373ffffffffffffffffffffffffffffffffffffffff16146111c8576040517f08c379a00000000000000000000000000000000000000000000000000000000081526004016111bf90611b83565b60405180910390fd5b600073ffffffffffffffffffffffffffffffffffffffff16600260008473ffffffffffffffffffffffffffffffffffffffff1673ffffffffffffffffffffffffffffffffffffffff16815260200190815260200160002060020160009054906101000a900473ffffffffffffffffffffffffffffffffffffffff1673ffffffffffffffffffffffffffffffffffffffff16141561129a576040517f08c379a000000000000000000000000000000000000000000000000000000000815260040161129190611bef565b60405180910390fd5b600260008373ffffffffffffffffffffffffffffffffffffffff1673ffffffffffffffffffffffffffffffffffffffff16815260200190815260200160002060020160149054906101000a900460ff16611329576040517f08c379a000000000000000000000000000000000000000000000000000000000815260040161132090611e26565b60405180910390fd5b6000600260008473ffffffffffffffffffffffffffffffffffffffff1673ffffffffffffffffffffffffffffffffffffffff16815260200190815260200160002060020160146101000a81548160ff02191690831515021790555060019050919050565b600081518351146113a157600090506113b5565b818051906020012083805190602001201490505b92915050565b8280546113c790611caa565b90600052602060002090601f0160209004810192826113e95760008555611430565b82601f1061140257805160ff1916838001178555611430565b82800160010185558215611430579182015b8281111561142f578251825591602001919060010190611414565b5b50905061143d9190611441565b5090565b5b8082111561145a576000816000905550600101611442565b5090565b6000604051905090565b600080fd5b600080fd5b600080fd5b600080fd5b6000601f19601f8301169050919050565b7f4e487b7100000000000000000000000000000000000000000000000000000000600052604160045260246000fd5b6114c58261147c565b810181811067ffffffffffffffff821117156114e4576114e361148d565b5b80604052505050565b60006114f761145e565b905061150382826114bc565b919050565b600067ffffffffffffffff8211156115235761152261148d565b5b61152c8261147c565b9050602081019050919050565b82818337600083830152505050565b600061155b61155684611508565b6114ed565b90508281526020810184848401111561157757611576611477565b5b611582848285611539565b509392505050565b600082601f83011261159f5761159e611472565b5b81356115af848260208601611548565b91505092915050565b6000602082840312156115ce576115cd611468565b5b600082013567ffffffffffffffff8111156115ec576115eb61146d565b5b6115f88482850161158a565b91505092915050565b6000819050919050565b61161481611601565b82525050565b600060208201905061162f600083018461160b565b92915050565b6000806040838503121561164c5761164b611468565b5b600083013567ffffffffffffffff81111561166a5761166961146d565b5b6116768582860161158a565b925050602083013567ffffffffffffffff8111156116975761169661146d565b5b6116a38582860161158a565b9150509250929050565b600073ffffffffffffffffffffffffffffffffffffffff82169050919050565b60006116d8826116ad565b9050919050565b6116e8816116cd565b81146116f357600080fd5b50565b600081359050611705816116df565b92915050565b60006020828403121561172157611720611468565b5b600061172f848285016116f6565b91505092915050565b611741816116cd565b82525050565b600060208201905061175c6000830184611738565b92915050565b600081519050919050565b600082825260208201905092915050565b60005b8381101561179c578082015181840152602081019050611781565b838111156117ab576000848401525b50505050565b60006117bc82611762565b6117c6818561176d565b93506117d681856020860161177e565b6117df8161147c565b840191505092915050565b60008115159050919050565b6117ff816117ea565b82525050565b6000604082019050818103600083015261181f81856117b1565b905061182e60208301846117f6565b9392505050565b6000806040838503121561184c5761184b611468565b5b600083013567ffffffffffffffff81111561186a5761186961146d565b5b6118768582860161158a565b9250506020611887858286016116f6565b9150509250929050565b60006020820190506118a660008301846117f6565b92915050565b7f5265717565737465642042616e6b2068617665206e6f204b594320507269766960008201527f6c65676500000000000000000000000000000000000000000000000000000000602082015250565b600061190860248361176d565b9150611913826118ac565b604082019050919050565b60006020820190508181036000830152611937816118fb565b9050919050565b600081905092915050565b600061195482611762565b61195e818561193e565b935061196e81856020860161177e565b80840191505092915050565b60006119868284611949565b915081905092915050565b7f4e487b7100000000000000000000000000000000000000000000000000000000600052601160045260246000fd5b6000819050919050565b60006119d5826119c0565b91507fffffffffffffffffffffffffffffffffffffffffffffffffffffffffffffffff821415611a0857611a07611991565b5b600182019050919050565b7f5265717565737465642042616e6b20697320626c6f636b656420616464696e6760008201527f206e657720637573746f6d657273000000000000000000000000000000000000602082015250565b6000611a6f602e8361176d565b9150611a7a82611a13565b604082019050919050565b60006020820190508181036000830152611a9e81611a62565b9050919050565b7f52657175657374656420437573746f6d65722020657869737473000000000000600082015250565b6000611adb601a8361176d565b9150611ae682611aa5565b602082019050919050565b60006020820190508181036000830152611b0a81611ace565b9050919050565b7f4966207468652063616c6c6572206973206e6f7420636f6e7472616374206f7760008201527f6e65720000000000000000000000000000000000000000000000000000000000602082015250565b6000611b6d60238361176d565b9150611b7882611b11565b604082019050919050565b60006020820190508181036000830152611b9c81611b60565b9050919050565b7f42616e6b2064657461696c73206e6f7420666f756e6400000000000000000000600082015250565b6000611bd960168361176d565b9150611be482611ba3565b602082019050919050565b60006020820190508181036000830152611c0881611bcc565b9050919050565b7f52657175657374656420437573746f6d6572206e6f7420666f756e6400000000600082015250565b6000611c45601c8361176d565b9150611c5082611c0f565b602082019050919050565b60006020820190508181036000830152611c7481611c38565b9050919050565b7f4e487b7100000000000000000000000000000000000000000000000000000000600052602260045260246000fd5b60006002820490506001821680611cc257607f821691505b60208210811415611cd657611cd5611c7b565b5b50919050565b7f5468697320746f6b656e20616c72656164792065786973747300000000000000600082015250565b6000611d1260198361176d565b9150611d1d82611cdc565b602082019050919050565b60006020820190508181036000830152611d4181611d05565b9050919050565b7f52657175657374656420437573746f6d65722069732061646465640000000000600082015250565b6000611d7e601b8361176d565b9150611d8982611d48565b602082019050919050565b60006020820190508181036000830152611dad81611d71565b9050919050565b7f5265717565737465642042616e6b20697320616c726561647920626c6f636b6560008201527f6400000000000000000000000000000000000000000000000000000000000000602082015250565b6000611e1060218361176d565b9150611e1b82611db4565b604082019050919050565b60006020820190508181036000830152611e3f81611e03565b905091905056fea2646970667358221220cbd89b3a720b3a1655297d79c3e3ed360b953321d893f3fd4582382a3a2afbdd64736f6c634300080b0033",
  "immutableReferences": {},
  "source": "// SPDX-License-Identifier: MIT\npragma solidity >=0.4.22 <0.9.0;\n\ncontract DKYCVerification {\n    //'_owner' variable of type address with a public getter function\n    address private _owner;\n\n    constructor() {\n        setContractOwner(msg.sender);\n    }\n\n    // create an 'onlyOwner' modifier that throws if called by any account other than the owner.\n    modifier onlyOwner() {\n        require(msg.sender == _owner, \"If the caller is not contract owner\");\n        _;\n    }\n\n    // Bank struct\n    struct Bank {\n        string bankName;\n        uint256 kycCounter;\n        address bankAddress;\n        bool isAllowedToAddCustomer;\n        bool kycPrivilege;\n    }\n\n    // number of the total bank + kycCounter\n    uint256 private totalCount;\n\n    // Customer struct\n    struct Customer {\n        string customerName;\n        string customerData;\n        address customerBank;\n        bool kycStatus;\n    }\n\n    mapping(address => Bank) private _bank; //  Mapping a bank's address to the Bank\n    mapping(string => Customer) private _customerInfo; //  Mapping a customer's username to the Customer\n\n    // addNewBank\n    function addNewBank(string memory _bankName, address _bankAddress)\n        public\n        onlyOwner\n    {\n        require(\n            _checkBank(_bank[_bankAddress].bankName, _bankName),\n            \"This token already exists\"\n        );\n        uint256 kycCounter = totalCount++;\n        _bank[_bankAddress] = Bank({\n            bankName: _bankName,\n            kycCounter: kycCounter,\n            bankAddress: _bankAddress,\n            isAllowedToAddCustomer: true,\n            kycPrivilege: true\n        });\n    }\n\n    // blockBankFromKYC\n    function blockBankFromKYC(address _bankAddress)\n        public\n        onlyOwner\n        returns (int256)\n    {\n        require(\n            _bank[_bankAddress].bankAddress != address(0),\n            \"Bank details not found\"\n        );\n        _bank[_bankAddress].kycPrivilege = false;\n        return 1;\n    }\n\n    //allowBankFromKYC\n    function allowBankFromKYC(address _bankAddress)\n        public\n        onlyOwner\n        returns (int256)\n    {\n        require(\n            _bank[_bankAddress].bankAddress != address(0),\n            \"Bank details not found\"\n        );\n        _bank[_bankAddress].kycPrivilege = true;\n        return 1;\n    }\n\n    // blockBankFromAddingNewCustomers\n\n    function blockBankFromAddingNewCustomers(address _bankAddress)\n        public\n        onlyOwner\n        returns (int256)\n    {\n        require(\n            _bank[_bankAddress].bankAddress != address(0),\n            \"Bank details not found\"\n        );\n        require(\n            _bank[_bankAddress].isAllowedToAddCustomer,\n            \"Requested Bank is already blocked\"\n        );\n        _bank[_bankAddress].isAllowedToAddCustomer = false;\n        return 1;\n    }\n\n    //allowBankFromAddingNewCustomers\n\n    function allowBankFromAddingNewCustomers(address _bankAddress)\n        public\n        onlyOwner\n        returns (int256)\n    {\n        require(\n            _bank[_bankAddress].bankAddress != address(0),\n            \"Bank details not found\"\n        );\n        require(\n            _bank[_bankAddress].isAllowedToAddCustomer,\n            \"Requested Bank is already blocked\"\n        );\n        _bank[_bankAddress].isAllowedToAddCustomer = true;\n        return 1;\n    }\n\n    //addNewCustomerToBank\n\n    function addNewCustomerToBank(\n        string memory _customerName,\n        string memory _customerData\n    ) public {\n        require(\n            _bank[msg.sender].isAllowedToAddCustomer,\n            \"Requested Bank is blocked adding new customers\"\n        );\n        require(\n            _customerInfo[_customerName].customerBank == address(0),\n            \"Requested Customer  exists\"\n        );\n\n        _customerInfo[_customerName] = Customer({\n            customerName: _customerName,\n            customerData: _customerData,\n            customerBank: msg.sender,\n            kycStatus: false\n        });\n    }\n\n    //viewCustomerData\n    function viewCustomerData(string memory _customerName)\n        public\n        view\n        returns (string memory, bool)\n    {\n        require(\n            _customerInfo[_customerName].customerBank != address(0),\n            \"Requested Customer not found\"\n        );\n        return (\n            _customerInfo[_customerName].customerData,\n            _customerInfo[_customerName].kycStatus\n        );\n    }\n\n    //addNewCustomerRequestForKYC\n\n    function addNewCustomerRequestForKYC(string memory _customerName)\n        public\n        returns (int256)\n    {\n        require(\n            _bank[msg.sender].kycPrivilege,\n            \"Requested Bank have no KYC Privilege\"\n        );\n        _customerInfo[_customerName].kycStatus = true;\n        _bank[msg.sender].kycCounter++;\n\n        return 1;\n    }\n\n    //getCustomerKycStatus\n    function getCustomerKycStatus(string memory _customerName)\n        public\n        view\n        returns (bool)\n    {\n        require(\n            _customerInfo[_customerName].customerBank != address(0),\n            \"Requested Customer is added\"\n        );\n        return (_customerInfo[_customerName].kycStatus);\n    }\n\n    //getContractOwner\n    function getContractOwner() public view returns (address) {\n        return _owner;\n    }\n\n    //setContractOwner\n    function setContractOwner(address newOwner) private {\n        _owner = newOwner;\n    }\n\n    // checkBank\n    function _checkBank(string memory _bankOne, string memory _bankTwo)\n        private\n        pure\n        returns (bool)\n    {\n        if (bytes(_bankOne).length != bytes(_bankTwo).length) {\n            return false;\n        } else {\n            return keccak256(bytes(_bankOne)) == keccak256(bytes(_bankTwo));\n        }\n    }\n}\n",
  "sourcePath": "/Users/santuroy/iit/capstone-project/kyc-verification/contracts/DKYCVerification.sol",
  "compiler": {
    "name": "solc",
    "version": "0.8.11+commit.d7f03943.Emscripten.clang"
  },
  "schemaVersion": "3.4.4",
  "updatedAt": "2022-04-12T08:50:14.970Z",
  "networkType": "ethereum",
  "devdoc": {
    "kind": "dev",
    "methods": {},
    "version": 1
  },
  "userdoc": {
    "kind": "user",
    "methods": {},
    "version": 1
  }
}