{
  "contractName": "DKYCVerification",
  "abi": [
    {
      "inputs": [],
      "stateMutability": "nonpayable",
      "type": "constructor"
    },
    {
      "inputs": [
        {
          "internalType": "string",
          "name": "_bankName",
          "type": "string"
        },
        {
          "internalType": "address",
          "name": "_bankAddress",
          "type": "address"
        }
      ],
      "name": "addNewBank",
      "outputs": [],
      "stateMutability": "nonpayable",
      "type": "function"
    },
    {
      "inputs": [
        {
          "internalType": "address",
          "name": "_address",
          "type": "address"
        }
      ],
      "name": "getBank",
      "outputs": [
        {
          "internalType": "uint256",
          "name": "",
          "type": "uint256"
        },
        {
          "internalType": "string",
          "name": "",
          "type": "string"
        },
        {
          "internalType": "address",
          "name": "",
          "type": "address"
        },
        {
          "internalType": "bool",
          "name": "",
          "type": "bool"
        },
        {
          "internalType": "bool",
          "name": "",
          "type": "bool"
        }
      ],
      "stateMutability": "view",
      "type": "function",
      "constant": true
    },
    {
      "inputs": [
        {
          "internalType": "address",
          "name": "_bankAddress",
          "type": "address"
        }
      ],
      "name": "blockBankFromKYC",
      "outputs": [
        {
          "internalType": "int256",
          "name": "",
          "type": "int256"
        }
      ],
      "stateMutability": "nonpayable",
      "type": "function"
    },
    {
      "inputs": [
        {
          "internalType": "address",
          "name": "_bankAddress",
          "type": "address"
        }
      ],
      "name": "allowBankFromKYC",
      "outputs": [
        {
          "internalType": "int256",
          "name": "",
          "type": "int256"
        }
      ],
      "stateMutability": "nonpayable",
      "type": "function"
    },
    {
      "inputs": [
        {
          "internalType": "address",
          "name": "_bankAddress",
          "type": "address"
        }
      ],
      "name": "blockBankFromAddingNewCustomers",
      "outputs": [
        {
          "internalType": "int256",
          "name": "",
          "type": "int256"
        }
      ],
      "stateMutability": "nonpayable",
      "type": "function"
    },
    {
      "inputs": [
        {
          "internalType": "address",
          "name": "_bankAddress",
          "type": "address"
        }
      ],
      "name": "allowBankFromAddingNewCustomers",
      "outputs": [
        {
          "internalType": "int256",
          "name": "",
          "type": "int256"
        }
      ],
      "stateMutability": "nonpayable",
      "type": "function"
    },
    {
      "inputs": [
        {
          "internalType": "string",
          "name": "_customerName",
          "type": "string"
        },
        {
          "internalType": "string",
          "name": "_customerData",
          "type": "string"
        }
      ],
      "name": "addNewCustomerToBank",
      "outputs": [],
      "stateMutability": "nonpayable",
      "type": "function"
    },
    {
      "inputs": [
        {
          "internalType": "string",
          "name": "_customerName",
          "type": "string"
        }
      ],
      "name": "viewCustomerData",
      "outputs": [
        {
          "internalType": "uint256",
          "name": "",
          "type": "uint256"
        },
        {
          "internalType": "string",
          "name": "",
          "type": "string"
        },
        {
          "internalType": "string",
          "name": "",
          "type": "string"
        },
        {
          "internalType": "bool",
          "name": "",
          "type": "bool"
        }
      ],
      "stateMutability": "view",
      "type": "function",
      "constant": true
    },
    {
      "inputs": [
        {
          "internalType": "string",
          "name": "_customerName",
          "type": "string"
        }
      ],
      "name": "addNewCustomerRequestForKYC",
      "outputs": [
        {
          "internalType": "int256",
          "name": "",
          "type": "int256"
        }
      ],
      "stateMutability": "nonpayable",
      "type": "function"
    },
    {
      "inputs": [
        {
          "internalType": "string",
          "name": "_customerName",
          "type": "string"
        }
      ],
      "name": "getCustomerKycStatus",
      "outputs": [
        {
          "internalType": "bool",
          "name": "",
          "type": "bool"
        }
      ],
      "stateMutability": "view",
      "type": "function",
      "constant": true
    },
    {
      "inputs": [],
      "name": "getContractOwner",
      "outputs": [
        {
          "internalType": "address",
          "name": "",
          "type": "address"
        }
      ],
      "stateMutability": "view",
      "type": "function",
      "constant": true
    }
  ],
  "bytecode": "0x608060405234801561001057600080fd5b506100203361002d60201b60201c565b6064600181905550610070565b806000806101000a81548173ffffffffffffffffffffffffffffffffffffffff021916908373ffffffffffffffffffffffffffffffffffffffff16021790555050565b6121fe8061007f6000396000f3fe608060405234801561001057600080fd5b50600436106100a95760003560e01c8063706312cf11610071578063706312cf1461017b578063761055161461019757806383e0c31d146101c75780639de31c97146101fb578063a1b72d1d1461022b578063ad23d42c1461025b576100a9565b80632114e478146100ae578063284d250a146100de5780632a5e3bb0146100fa578063442890d51461012a5780634a6c2f6114610148575b600080fd5b6100c860048036038101906100c391906117c6565b61028b565b6040516100d59190611828565b60405180910390f35b6100f860048036038101906100f39190611843565b6103b7565b005b610114600480360381019061010f9190611919565b610660565b6040516101219190611828565b60405180910390f35b6101326107db565b60405161013f9190611955565b60405180910390f35b610162600480360381019061015d91906117c6565b610804565b6040516101729493929190611a2c565b60405180910390f35b61019560048036038101906101909190611a7f565b610a29565b005b6101b160048036038101906101ac91906117c6565b610d40565b6040516101be9190611adb565b60405180910390f35b6101e160048036038101906101dc9190611919565b610ddc565b6040516101f2959493929190611af6565b60405180910390f35b61021560048036038101906102109190611919565b61100c565b6040516102229190611828565b60405180910390f35b61024560048036038101906102409190611919565b611187565b6040516102529190611828565b60405180910390f35b61027560048036038101906102709190611919565b611391565b6040516102829190611828565b60405180910390f35b6000600360003373ffffffffffffffffffffffffffffffffffffffff1673ffffffffffffffffffffffffffffffffffffffff16815260200190815260200160002060030160159054906101000a900460ff1661031c576040517f08c379a000000000000000000000000000000000000000000000000000000000815260040161031390611bc2565b60405180910390fd5b600160048360405161032e9190611c1e565b908152602001604051809103902060030160146101000a81548160ff021916908315150217905550600360003373ffffffffffffffffffffffffffffffffffffffff1673ffffffffffffffffffffffffffffffffffffffff16815260200190815260200160002060020160008154809291906103a990611c64565b919050555060019050919050565b600360003373ffffffffffffffffffffffffffffffffffffffff1673ffffffffffffffffffffffffffffffffffffffff16815260200190815260200160002060030160149054906101000a900460ff16610446576040517f08c379a000000000000000000000000000000000000000000000000000000000815260040161043d90611d1f565b60405180910390fd5b6104f96004836040516104599190611c1e565b9081526020016040518091039020600101805461047590611d6e565b80601f01602080910402602001604051908101604052809291908181526020018280546104a190611d6e565b80156104ee5780601f106104c3576101008083540402835291602001916104ee565b820191906000526020600020905b8154815290600101906020018083116104d157829003601f168201915b50505050508361159b565b15610539576040517f08c379a000000000000000000000000000000000000000000000000000000000815260040161053090611dec565b60405180910390fd5b60046001546105489190611e0c565b6001819055506040518060a0016040528060015481526020018381526020018281526020013373ffffffffffffffffffffffffffffffffffffffff168152602001600015158152506004836040516105a09190611c1e565b90815260200160405180910390206000820151816000015560208201518160010190805190602001906105d49291906115c9565b5060408201518160020190805190602001906105f19291906115c9565b5060608201518160030160006101000a81548173ffffffffffffffffffffffffffffffffffffffff021916908373ffffffffffffffffffffffffffffffffffffffff16021790555060808201518160030160146101000a81548160ff0219169083151502179055509050505050565b60008060009054906101000a900473ffffffffffffffffffffffffffffffffffffffff1673ffffffffffffffffffffffffffffffffffffffff163373ffffffffffffffffffffffffffffffffffffffff16146106f1576040517f08c379a00000000000000000000000000000000000000000000000000000000081526004016106e890611ed4565b60405180910390fd5b6000600360008473ffffffffffffffffffffffffffffffffffffffff1673ffffffffffffffffffffffffffffffffffffffff168152602001908152602001600020600001541415610777576040517f08c379a000000000000000000000000000000000000000000000000000000000815260040161076e90611f40565b60405180910390fd5b6001600360008473ffffffffffffffffffffffffffffffffffffffff1673ffffffffffffffffffffffffffffffffffffffff16815260200190815260200160002060030160156101000a81548160ff02191690831515021790555060019050919050565b60008060009054906101000a900473ffffffffffffffffffffffffffffffffffffffff16905090565b600060608060008060048660405161081c9190611c1e565b908152602001604051809103902060000154141561086f576040517f08c379a000000000000000000000000000000000000000000000000000000000815260040161086690611fac565b60405180910390fd5b60048560405161087f9190611c1e565b9081526020016040518091039020600001546004866040516108a19190611c1e565b90815260200160405180910390206001016004876040516108c29190611c1e565b90815260200160405180910390206002016004886040516108e39190611c1e565b908152602001604051809103902060030160149054906101000a900460ff1682805461090e90611d6e565b80601f016020809104026020016040519081016040528092919081815260200182805461093a90611d6e565b80156109875780601f1061095c57610100808354040283529160200191610987565b820191906000526020600020905b81548152906001019060200180831161096a57829003601f168201915b5050505050925081805461099a90611d6e565b80601f01602080910402602001604051908101604052809291908181526020018280546109c690611d6e565b8015610a135780601f106109e857610100808354040283529160200191610a13565b820191906000526020600020905b8154815290600101906020018083116109f657829003601f168201915b5050505050915093509350935093509193509193565b60008054906101000a900473ffffffffffffffffffffffffffffffffffffffff1673ffffffffffffffffffffffffffffffffffffffff163373ffffffffffffffffffffffffffffffffffffffff1614610ab7576040517f08c379a0000000000000000000000000000000000000000000000000000000008152600401610aae90611ed4565b60405180910390fd5b610b8b600360008373ffffffffffffffffffffffffffffffffffffffff1673ffffffffffffffffffffffffffffffffffffffff1681526020019081526020016000206001018054610b0790611d6e565b80601f0160208091040260200160405190810160405280929190818152602001828054610b3390611d6e565b8015610b805780601f10610b5557610100808354040283529160200191610b80565b820191906000526020600020905b815481529060010190602001808311610b6357829003601f168201915b50505050508361159b565b15610bcb576040517f08c379a0000000000000000000000000000000000000000000000000000000008152600401610bc290612018565b60405180910390fd5b6004600154610bda9190611e0c565b6001819055506001600254610bef9190611e0c565b6002819055506040518060c00160405280600154815260200183815260200160025481526020018273ffffffffffffffffffffffffffffffffffffffff16815260200160011515815260200160011515815250600360008373ffffffffffffffffffffffffffffffffffffffff1673ffffffffffffffffffffffffffffffffffffffff168152602001908152602001600020600082015181600001556020820151816001019080519060200190610ca79291906115c9565b506040820151816002015560608201518160030160006101000a81548173ffffffffffffffffffffffffffffffffffffffff021916908373ffffffffffffffffffffffffffffffffffffffff16021790555060808201518160030160146101000a81548160ff02191690831515021790555060a08201518160030160156101000a81548160ff0219169083151502179055509050505050565b600080600483604051610d539190611c1e565b9081526020016040518091039020600001541415610da6576040517f08c379a0000000000000000000000000000000000000000000000000000000008152600401610d9d90612084565b60405180910390fd5b600482604051610db69190611c1e565b908152602001604051809103902060030160149054906101000a900460ff169050919050565b600060606000806000600360008773ffffffffffffffffffffffffffffffffffffffff1673ffffffffffffffffffffffffffffffffffffffff16815260200190815260200160002060000154600360008873ffffffffffffffffffffffffffffffffffffffff1673ffffffffffffffffffffffffffffffffffffffff168152602001908152602001600020600101600360008973ffffffffffffffffffffffffffffffffffffffff1673ffffffffffffffffffffffffffffffffffffffff16815260200190815260200160002060030160009054906101000a900473ffffffffffffffffffffffffffffffffffffffff16600360008a73ffffffffffffffffffffffffffffffffffffffff1673ffffffffffffffffffffffffffffffffffffffff16815260200190815260200160002060030160159054906101000a900460ff16600360008b73ffffffffffffffffffffffffffffffffffffffff1673ffffffffffffffffffffffffffffffffffffffff16815260200190815260200160002060030160149054906101000a900460ff16838054610f7990611d6e565b80601f0160208091040260200160405190810160405280929190818152602001828054610fa590611d6e565b8015610ff25780601f10610fc757610100808354040283529160200191610ff2565b820191906000526020600020905b815481529060010190602001808311610fd557829003601f168201915b505050505093509450945094509450945091939590929450565b60008060009054906101000a900473ffffffffffffffffffffffffffffffffffffffff1673ffffffffffffffffffffffffffffffffffffffff163373ffffffffffffffffffffffffffffffffffffffff161461109d576040517f08c379a000000000000000000000000000000000000000000000000000000000815260040161109490611ed4565b60405180910390fd5b6000600360008473ffffffffffffffffffffffffffffffffffffffff1673ffffffffffffffffffffffffffffffffffffffff168152602001908152602001600020600001541415611123576040517f08c379a000000000000000000000000000000000000000000000000000000000815260040161111a90611f40565b60405180910390fd5b6000600360008473ffffffffffffffffffffffffffffffffffffffff1673ffffffffffffffffffffffffffffffffffffffff16815260200190815260200160002060030160156101000a81548160ff02191690831515021790555060019050919050565b60008060009054906101000a900473ffffffffffffffffffffffffffffffffffffffff1673ffffffffffffffffffffffffffffffffffffffff163373ffffffffffffffffffffffffffffffffffffffff1614611218576040517f08c379a000000000000000000000000000000000000000000000000000000000815260040161120f90611ed4565b60405180910390fd5b6000600360008473ffffffffffffffffffffffffffffffffffffffff1673ffffffffffffffffffffffffffffffffffffffff16815260200190815260200160002060000154141561129e576040517f08c379a000000000000000000000000000000000000000000000000000000000815260040161129590611f40565b60405180910390fd5b600360008373ffffffffffffffffffffffffffffffffffffffff1673ffffffffffffffffffffffffffffffffffffffff16815260200190815260200160002060030160149054906101000a900460ff1661132d576040517f08c379a000000000000000000000000000000000000000000000000000000000815260040161132490612116565b60405180910390fd5b6001600360008473ffffffffffffffffffffffffffffffffffffffff1673ffffffffffffffffffffffffffffffffffffffff16815260200190815260200160002060030160146101000a81548160ff02191690831515021790555060019050919050565b60008060009054906101000a900473ffffffffffffffffffffffffffffffffffffffff1673ffffffffffffffffffffffffffffffffffffffff163373ffffffffffffffffffffffffffffffffffffffff1614611422576040517f08c379a000000000000000000000000000000000000000000000000000000000815260040161141990611ed4565b60405180910390fd5b6000600360008473ffffffffffffffffffffffffffffffffffffffff1673ffffffffffffffffffffffffffffffffffffffff1681526020019081526020016000206000015414156114a8576040517f08c379a000000000000000000000000000000000000000000000000000000000815260040161149f90611f40565b60405180910390fd5b600360008373ffffffffffffffffffffffffffffffffffffffff1673ffffffffffffffffffffffffffffffffffffffff16815260200190815260200160002060030160149054906101000a900460ff16611537576040517f08c379a000000000000000000000000000000000000000000000000000000000815260040161152e906121a8565b60405180910390fd5b6000600360008473ffffffffffffffffffffffffffffffffffffffff1673ffffffffffffffffffffffffffffffffffffffff16815260200190815260200160002060030160146101000a81548160ff02191690831515021790555060019050919050565b600081518351146115af57600090506115c3565b818051906020012083805190602001201490505b92915050565b8280546115d590611d6e565b90600052602060002090601f0160209004810192826115f7576000855561163e565b82601f1061161057805160ff191683800117855561163e565b8280016001018555821561163e579182015b8281111561163d578251825591602001919060010190611622565b5b50905061164b919061164f565b5090565b5b80821115611668576000816000905550600101611650565b5090565b6000604051905090565b600080fd5b600080fd5b600080fd5b600080fd5b6000601f19601f8301169050919050565b7f4e487b7100000000000000000000000000000000000000000000000000000000600052604160045260246000fd5b6116d38261168a565b810181811067ffffffffffffffff821117156116f2576116f161169b565b5b80604052505050565b600061170561166c565b905061171182826116ca565b919050565b600067ffffffffffffffff8211156117315761173061169b565b5b61173a8261168a565b9050602081019050919050565b82818337600083830152505050565b600061176961176484611716565b6116fb565b90508281526020810184848401111561178557611784611685565b5b611790848285611747565b509392505050565b600082601f8301126117ad576117ac611680565b5b81356117bd848260208601611756565b91505092915050565b6000602082840312156117dc576117db611676565b5b600082013567ffffffffffffffff8111156117fa576117f961167b565b5b61180684828501611798565b91505092915050565b6000819050919050565b6118228161180f565b82525050565b600060208201905061183d6000830184611819565b92915050565b6000806040838503121561185a57611859611676565b5b600083013567ffffffffffffffff8111156118785761187761167b565b5b61188485828601611798565b925050602083013567ffffffffffffffff8111156118a5576118a461167b565b5b6118b185828601611798565b9150509250929050565b600073ffffffffffffffffffffffffffffffffffffffff82169050919050565b60006118e6826118bb565b9050919050565b6118f6816118db565b811461190157600080fd5b50565b600081359050611913816118ed565b92915050565b60006020828403121561192f5761192e611676565b5b600061193d84828501611904565b91505092915050565b61194f816118db565b82525050565b600060208201905061196a6000830184611946565b92915050565b6000819050919050565b61198381611970565b82525050565b600081519050919050565b600082825260208201905092915050565b60005b838110156119c35780820151818401526020810190506119a8565b838111156119d2576000848401525b50505050565b60006119e382611989565b6119ed8185611994565b93506119fd8185602086016119a5565b611a068161168a565b840191505092915050565b60008115159050919050565b611a2681611a11565b82525050565b6000608082019050611a41600083018761197a565b8181036020830152611a5381866119d8565b90508181036040830152611a6781856119d8565b9050611a766060830184611a1d565b95945050505050565b60008060408385031215611a9657611a95611676565b5b600083013567ffffffffffffffff811115611ab457611ab361167b565b5b611ac085828601611798565b9250506020611ad185828601611904565b9150509250929050565b6000602082019050611af06000830184611a1d565b92915050565b600060a082019050611b0b600083018861197a565b8181036020830152611b1d81876119d8565b9050611b2c6040830186611946565b611b396060830185611a1d565b611b466080830184611a1d565b9695505050505050565b7f5265717565737465642042616e6b206861766520616c7265616479206163746960008201527f7661746564204b59432050726976696c65676500000000000000000000000000602082015250565b6000611bac603383611994565b9150611bb782611b50565b604082019050919050565b60006020820190508181036000830152611bdb81611b9f565b9050919050565b600081905092915050565b6000611bf882611989565b611c028185611be2565b9350611c128185602086016119a5565b80840191505092915050565b6000611c2a8284611bed565b915081905092915050565b7f4e487b7100000000000000000000000000000000000000000000000000000000600052601160045260246000fd5b6000611c6f82611970565b91507fffffffffffffffffffffffffffffffffffffffffffffffffffffffffffffffff821415611ca257611ca1611c35565b5b600182019050919050565b7f5265717565737465642042616e6b20697320626c6f636b656420616464696e6760008201527f206e657720637573746f6d657273000000000000000000000000000000000000602082015250565b6000611d09602e83611994565b9150611d1482611cad565b604082019050919050565b60006020820190508181036000830152611d3881611cfc565b9050919050565b7f4e487b7100000000000000000000000000000000000000000000000000000000600052602260045260246000fd5b60006002820490506001821680611d8657607f821691505b60208210811415611d9a57611d99611d3f565b5b50919050565b7f52657175657374656420437573746f6d65722065786973747300000000000000600082015250565b6000611dd6601983611994565b9150611de182611da0565b602082019050919050565b60006020820190508181036000830152611e0581611dc9565b9050919050565b6000611e1782611970565b9150611e2283611970565b9250827fffffffffffffffffffffffffffffffffffffffffffffffffffffffffffffffff03821115611e5757611e56611c35565b5b828201905092915050565b7f4966207468652063616c6c6572206973206e6f7420636f6e7472616374206f7760008201527f6e65720000000000000000000000000000000000000000000000000000000000602082015250565b6000611ebe602383611994565b9150611ec982611e62565b604082019050919050565b60006020820190508181036000830152611eed81611eb1565b9050919050565b7f42616e6b2064657461696c73206e6f7420666f756e6400000000000000000000600082015250565b6000611f2a601683611994565b9150611f3582611ef4565b602082019050919050565b60006020820190508181036000830152611f5981611f1d565b9050919050565b7f52657175657374656420437573746f6d6572206e6f7420666f756e6400000000600082015250565b6000611f96601c83611994565b9150611fa182611f60565b602082019050919050565b60006020820190508181036000830152611fc581611f89565b9050919050565b7f5468697320746f6b656e20616c72656164792065786973747300000000000000600082015250565b6000612002601983611994565b915061200d82611fcc565b602082019050919050565b6000602082019050818103600083015261203181611ff5565b9050919050565b7f52657175657374656420437573746f6d6572206973206e6f7420616464656400600082015250565b600061206e601f83611994565b915061207982612038565b602082019050919050565b6000602082019050818103600083015261209d81612061565b9050919050565b7f5265717565737465642042616e6b20697320616c726561647920756e626c6f6360008201527f6b65640000000000000000000000000000000000000000000000000000000000602082015250565b6000612100602383611994565b915061210b826120a4565b604082019050919050565b6000602082019050818103600083015261212f816120f3565b9050919050565b7f5265717565737465642042616e6b20697320616c726561647920626c6f636b6560008201527f6400000000000000000000000000000000000000000000000000000000000000602082015250565b6000612192602183611994565b915061219d82612136565b604082019050919050565b600060208201905081810360008301526121c181612185565b905091905056fea2646970667358221220551e96fc1aedcbcd461e9e4a5c5128f9619c912fc9086e6993210d1969844ecd64736f6c634300080b0033",
  "immutableReferences": {},
  "source": "// SPDX-License-Identifier: MIT\npragma solidity >=0.4.22 <0.9.0;\n\ncontract DKYCVerification {\n    //'_owner' variable of type address with a public getter function\n    address private _owner;\n    // number of the total bank + kycCounter\n    uint256 private randomOne;\n    uint256 private kycCounter;\n\n    constructor() {\n        setContractOwner(msg.sender);\n        randomOne = 100;\n    }\n\n    // create an 'onlyOwner' modifier that throws if called by any account other than the owner.\n    modifier onlyOwner() {\n        require(msg.sender == _owner, \"If the caller is not contract owner\");\n        _;\n    }\n\n    // Bank struct\n    struct Bank {\n        uint256 bankNumber;\n        string bankName;\n        uint256 kycCounter;\n        address bankAddress;\n        bool isAllowedToAddCustomer;\n        bool kycPrivilege;\n    }\n\n    // Customer struct\n    struct Customer {\n        uint256 customerNumber;\n        string customerName;\n        string customerData;\n        address customerBank;\n        bool kycStatus;\n    }\n\n    mapping(address => Bank) private _bank; //  Mapping a bank's address to the Bank\n    mapping(string => Customer) private _customerInfo; //  Mapping a customer's username to the Customer\n\n    // addNewBank\n    function addNewBank(string memory _bankName, address _bankAddress)\n        public\n        onlyOwner\n    {\n        require(\n            !_check(_bank[_bankAddress].bankName, _bankName),\n            \"This token already exists\"\n        );\n        randomOne = randomOne + 4;\n        kycCounter = kycCounter + 1;\n\n        _bank[_bankAddress] = Bank({\n            bankNumber: randomOne,\n            bankName: _bankName,\n            kycCounter: kycCounter,\n            bankAddress: _bankAddress,\n            isAllowedToAddCustomer: true,\n            kycPrivilege: true\n        });\n    }\n\n    //getBank\n    function getBank(address _address)\n        public\n        view\n        returns (\n            uint256,\n            string memory,\n            address,\n            bool,\n            bool\n        )\n    {\n        return (\n            _bank[_address].bankNumber,\n            _bank[_address].bankName,\n            _bank[_address].bankAddress,\n            _bank[_address].kycPrivilege,\n            _bank[_address].isAllowedToAddCustomer\n        );\n    }\n\n    // blockBankFromKYC\n    function blockBankFromKYC(address _bankAddress)\n        public\n        onlyOwner\n        returns (int256)\n    {\n        require(_bank[_bankAddress].bankNumber != 0, \"Bank details not found\");\n        _bank[_bankAddress].kycPrivilege = false;\n        return 1;\n    }\n\n    //allowBankFromKYC\n    function allowBankFromKYC(address _bankAddress)\n        public\n        onlyOwner\n        returns (int256)\n    {\n        require(_bank[_bankAddress].bankNumber != 0, \"Bank details not found\");\n        _bank[_bankAddress].kycPrivilege = true;\n        return 1;\n    }\n\n    // blockBankFromAddingNewCustomers\n\n    function blockBankFromAddingNewCustomers(address _bankAddress)\n        public\n        onlyOwner\n        returns (int256)\n    {\n        require(_bank[_bankAddress].bankNumber != 0, \"Bank details not found\");\n        require(\n            _bank[_bankAddress].isAllowedToAddCustomer,\n            \"Requested Bank is already blocked\"\n        );\n        _bank[_bankAddress].isAllowedToAddCustomer = false;\n        return 1;\n    }\n\n    //allowBankFromAddingNewCustomers\n\n    function allowBankFromAddingNewCustomers(address _bankAddress)\n        public\n        onlyOwner\n        returns (int256)\n    {\n        require(_bank[_bankAddress].bankNumber != 0, \"Bank details not found\");\n        require(\n            _bank[_bankAddress].isAllowedToAddCustomer,\n            \"Requested Bank is already unblocked\"\n        );\n        _bank[_bankAddress].isAllowedToAddCustomer = true;\n        return 1;\n    }\n\n    //addNewCustomerToBank\n\n    function addNewCustomerToBank(\n        string memory _customerName,\n        string memory _customerData\n    ) public {\n        require(\n            _bank[msg.sender].isAllowedToAddCustomer,\n            \"Requested Bank is blocked adding new customers\"\n        );\n\n        require(\n            !_check(_customerInfo[_customerName].customerName, _customerName),\n            \"Requested Customer exists\"\n        );\n        randomOne = randomOne + 4;\n\n        _customerInfo[_customerName] = Customer({\n            customerNumber: randomOne,\n            customerName: _customerName,\n            customerData: _customerData,\n            customerBank: msg.sender,\n            kycStatus: false\n        });\n    }\n\n    //viewCustomerData\n    function viewCustomerData(string memory _customerName)\n        public\n        view\n        returns (\n            uint256,\n            string memory,\n            string memory,\n            bool\n        )\n    {\n        require(\n            _customerInfo[_customerName].customerNumber != 0,\n            \"Requested Customer not found\"\n        );\n        return (\n            _customerInfo[_customerName].customerNumber,\n            _customerInfo[_customerName].customerName,\n            _customerInfo[_customerName].customerData,\n            _customerInfo[_customerName].kycStatus\n        );\n    }\n\n    //addNewCustomerRequestForKYC\n\n    function addNewCustomerRequestForKYC(string memory _customerName)\n        public\n        returns (int256)\n    {\n        require(\n            _bank[msg.sender].kycPrivilege,\n            \"Requested Bank have already activated KYC Privilege\"\n        );\n        _customerInfo[_customerName].kycStatus = true;\n        _bank[msg.sender].kycCounter++;\n\n        return 1;\n    }\n\n    //getCustomerKycStatus\n    function getCustomerKycStatus(string memory _customerName)\n        public\n        view\n        returns (bool)\n    {\n        require(\n            _customerInfo[_customerName].customerNumber != 0,\n            \"Requested Customer is not added\"\n        );\n        return (_customerInfo[_customerName].kycStatus);\n    }\n\n    //getContractOwner\n    function getContractOwner() public view returns (address) {\n        return _owner;\n    }\n\n    //setContractOwner\n    function setContractOwner(address newOwner) private {\n        _owner = newOwner;\n    }\n\n    // checkBank\n    function _check(string memory _a, string memory _b)\n        private\n        pure\n        returns (bool)\n    {\n        if (bytes(_a).length != bytes(_b).length) {\n            return false;\n        } else {\n            return keccak256(bytes(_a)) == keccak256(bytes(_b));\n        }\n    }\n}\n",
  "sourcePath": "/Users/santuroy/iit/capstone-project/kyc-verification/contracts/DKYCVerification.sol",
  "compiler": {
    "name": "solc",
    "version": "0.8.11+commit.d7f03943.Emscripten.clang"
  },
  "schemaVersion": "3.4.4",
  "updatedAt": "2022-04-14T05:22:49.313Z",
  "networkType": "ethereum",
  "devdoc": {
    "kind": "dev",
    "methods": {},
    "version": 1
  },
  "userdoc": {
    "kind": "user",
    "methods": {},
    "version": 1
  }
}