{
  "contractName": "DKYCVerification",
  "abi": [
    {
      "inputs": [],
      "stateMutability": "nonpayable",
      "type": "constructor"
    },
    {
      "inputs": [
        {
          "internalType": "string",
          "name": "_bankName",
          "type": "string"
        },
        {
          "internalType": "address",
          "name": "_bankAddress",
          "type": "address"
        }
      ],
      "name": "addNewBank",
      "outputs": [],
      "stateMutability": "nonpayable",
      "type": "function"
    },
    {
      "inputs": [
        {
          "internalType": "address",
          "name": "_bankAddress",
          "type": "address"
        }
      ],
      "name": "blockBankFromKYC",
      "outputs": [
        {
          "internalType": "int256",
          "name": "",
          "type": "int256"
        }
      ],
      "stateMutability": "nonpayable",
      "type": "function"
    },
    {
      "inputs": [
        {
          "internalType": "address",
          "name": "_bankAddress",
          "type": "address"
        }
      ],
      "name": "allowBankFromKYC",
      "outputs": [
        {
          "internalType": "int256",
          "name": "",
          "type": "int256"
        }
      ],
      "stateMutability": "nonpayable",
      "type": "function"
    },
    {
      "inputs": [
        {
          "internalType": "address",
          "name": "_bankAddress",
          "type": "address"
        }
      ],
      "name": "blockBankFromAddingNewCustomers",
      "outputs": [
        {
          "internalType": "int256",
          "name": "",
          "type": "int256"
        }
      ],
      "stateMutability": "nonpayable",
      "type": "function"
    },
    {
      "inputs": [
        {
          "internalType": "address",
          "name": "_bankAddress",
          "type": "address"
        }
      ],
      "name": "allowBankFromAddingNewCustomers",
      "outputs": [
        {
          "internalType": "int256",
          "name": "",
          "type": "int256"
        }
      ],
      "stateMutability": "nonpayable",
      "type": "function"
    },
    {
      "inputs": [
        {
          "internalType": "string",
          "name": "_customerName",
          "type": "string"
        },
        {
          "internalType": "string",
          "name": "_customerData",
          "type": "string"
        }
      ],
      "name": "addNewCustomerToBank",
      "outputs": [],
      "stateMutability": "nonpayable",
      "type": "function"
    },
    {
      "inputs": [
        {
          "internalType": "string",
          "name": "_customerName",
          "type": "string"
        }
      ],
      "name": "viewCustomerData",
      "outputs": [
        {
          "internalType": "string",
          "name": "",
          "type": "string"
        },
        {
          "internalType": "bool",
          "name": "",
          "type": "bool"
        }
      ],
      "stateMutability": "view",
      "type": "function",
      "constant": true
    },
    {
      "inputs": [
        {
          "internalType": "string",
          "name": "_customerName",
          "type": "string"
        }
      ],
      "name": "addNewCustomerRequestForKYC",
      "outputs": [
        {
          "internalType": "int256",
          "name": "",
          "type": "int256"
        }
      ],
      "stateMutability": "nonpayable",
      "type": "function"
    },
    {
      "inputs": [
        {
          "internalType": "string",
          "name": "_customerName",
          "type": "string"
        }
      ],
      "name": "getCustomerKycStatus",
      "outputs": [
        {
          "internalType": "bool",
          "name": "",
          "type": "bool"
        }
      ],
      "stateMutability": "view",
      "type": "function",
      "constant": true
    }
  ],
  "bytecode": "0x608060405234801561001057600080fd5b50336000806101000a81548173ffffffffffffffffffffffffffffffffffffffff021916908373ffffffffffffffffffffffffffffffffffffffff160217905550611e00806100606000396000f3fe608060405234801561001057600080fd5b50600436106100935760003560e01c8063706312cf11610066578063706312cf1461014557806376105516146101615780639de31c9714610191578063a1b72d1d146101c1578063ad23d42c146101f157610093565b80632114e47814610098578063284d250a146100c85780632a5e3bb0146100e45780634a6c2f6114610114575b600080fd5b6100b260048036038101906100ad9190611566565b610221565b6040516100bf91906115c8565b60405180910390f35b6100e260048036038101906100dd91906115e3565b61034d565b005b6100fe60048036038101906100f991906116b9565b61058c565b60405161010b91906115c8565b60405180910390f35b61012e60048036038101906101299190611566565b610753565b60405161013c929190611789565b60405180910390f35b61015f600480360381019061015a91906117b9565b6108ec565b005b61017b60048036038101906101769190611566565b610be0565b6040516101889190611815565b60405180910390f35b6101ab60048036038101906101a691906116b9565b610cc8565b6040516101b891906115c8565b60405180910390f35b6101db60048036038101906101d691906116b9565b610e8f565b6040516101e891906115c8565b60405180910390f35b61020b600480360381019061020691906116b9565b6110e5565b60405161021891906115c8565b60405180910390f35b6000600260003373ffffffffffffffffffffffffffffffffffffffff1673ffffffffffffffffffffffffffffffffffffffff16815260200190815260200160002060020160159054906101000a900460ff166102b2576040517f08c379a00000000000000000000000000000000000000000000000000000000081526004016102a9906118a2565b60405180910390fd5b60016003836040516102c491906118fe565b908152602001604051809103902060020160146101000a81548160ff021916908315150217905550600260003373ffffffffffffffffffffffffffffffffffffffff1673ffffffffffffffffffffffffffffffffffffffff168152602001908152602001600020600101600081548092919061033f9061194e565b919050555060019050919050565b600260003373ffffffffffffffffffffffffffffffffffffffff1673ffffffffffffffffffffffffffffffffffffffff16815260200190815260200160002060020160149054906101000a900460ff166103dc576040517f08c379a00000000000000000000000000000000000000000000000000000000081526004016103d390611a09565b60405180910390fd5b600073ffffffffffffffffffffffffffffffffffffffff1660038360405161040491906118fe565b908152602001604051809103902060020160009054906101000a900473ffffffffffffffffffffffffffffffffffffffff1673ffffffffffffffffffffffffffffffffffffffff161461048c576040517f08c379a000000000000000000000000000000000000000000000000000000000815260040161048390611a75565b60405180910390fd5b60405180608001604052808381526020018281526020013373ffffffffffffffffffffffffffffffffffffffff168152602001600015158152506003836040516104d691906118fe565b90815260200160405180910390206000820151816000019080519060200190610500929190611369565b50602082015181600101908051906020019061051d929190611369565b5060408201518160020160006101000a81548173ffffffffffffffffffffffffffffffffffffffff021916908373ffffffffffffffffffffffffffffffffffffffff16021790555060608201518160020160146101000a81548160ff0219169083151502179055509050505050565b60008060009054906101000a900473ffffffffffffffffffffffffffffffffffffffff1673ffffffffffffffffffffffffffffffffffffffff163373ffffffffffffffffffffffffffffffffffffffff161461061d576040517f08c379a000000000000000000000000000000000000000000000000000000000815260040161061490611b07565b60405180910390fd5b600073ffffffffffffffffffffffffffffffffffffffff16600260008473ffffffffffffffffffffffffffffffffffffffff1673ffffffffffffffffffffffffffffffffffffffff16815260200190815260200160002060020160009054906101000a900473ffffffffffffffffffffffffffffffffffffffff1673ffffffffffffffffffffffffffffffffffffffff1614156106ef576040517f08c379a00000000000000000000000000000000000000000000000000000000081526004016106e690611b73565b60405180910390fd5b6001600260008473ffffffffffffffffffffffffffffffffffffffff1673ffffffffffffffffffffffffffffffffffffffff16815260200190815260200160002060020160156101000a81548160ff02191690831515021790555060019050919050565b606060008073ffffffffffffffffffffffffffffffffffffffff1660038460405161077e91906118fe565b908152602001604051809103902060020160009054906101000a900473ffffffffffffffffffffffffffffffffffffffff1673ffffffffffffffffffffffffffffffffffffffff161415610807576040517f08c379a00000000000000000000000000000000000000000000000000000000081526004016107fe90611bdf565b60405180910390fd5b60038360405161081791906118fe565b908152602001604051809103902060010160038460405161083891906118fe565b908152602001604051809103902060020160149054906101000a900460ff1681805461086390611c2e565b80601f016020809104026020016040519081016040528092919081815260200182805461088f90611c2e565b80156108dc5780601f106108b1576101008083540402835291602001916108dc565b820191906000526020600020905b8154815290600101906020018083116108bf57829003601f168201915b5050505050915091509150915091565b60008054906101000a900473ffffffffffffffffffffffffffffffffffffffff1673ffffffffffffffffffffffffffffffffffffffff163373ffffffffffffffffffffffffffffffffffffffff161461097a576040517f08c379a000000000000000000000000000000000000000000000000000000000815260040161097190611b07565b60405180910390fd5b610a4e600260008373ffffffffffffffffffffffffffffffffffffffff1673ffffffffffffffffffffffffffffffffffffffff16815260200190815260200160002060000180546109ca90611c2e565b80601f01602080910402602001604051908101604052809291908181526020018280546109f690611c2e565b8015610a435780601f10610a1857610100808354040283529160200191610a43565b820191906000526020600020905b815481529060010190602001808311610a2657829003601f168201915b50505050508361133b565b610a8d576040517f08c379a0000000000000000000000000000000000000000000000000000000008152600401610a8490611cac565b60405180910390fd5b600060016000815480929190610aa29061194e565b9190505590506040518060a001604052808481526020018281526020018373ffffffffffffffffffffffffffffffffffffffff16815260200160011515815260200160011515815250600260008473ffffffffffffffffffffffffffffffffffffffff1673ffffffffffffffffffffffffffffffffffffffff1681526020019081526020016000206000820151816000019080519060200190610b46929190611369565b506020820151816001015560408201518160020160006101000a81548173ffffffffffffffffffffffffffffffffffffffff021916908373ffffffffffffffffffffffffffffffffffffffff16021790555060608201518160020160146101000a81548160ff02191690831515021790555060808201518160020160156101000a81548160ff021916908315150217905550905050505050565b60008073ffffffffffffffffffffffffffffffffffffffff16600383604051610c0991906118fe565b908152602001604051809103902060020160009054906101000a900473ffffffffffffffffffffffffffffffffffffffff1673ffffffffffffffffffffffffffffffffffffffff161415610c92576040517f08c379a0000000000000000000000000000000000000000000000000000000008152600401610c8990611d18565b60405180910390fd5b600382604051610ca291906118fe565b908152602001604051809103902060020160149054906101000a900460ff169050919050565b60008060009054906101000a900473ffffffffffffffffffffffffffffffffffffffff1673ffffffffffffffffffffffffffffffffffffffff163373ffffffffffffffffffffffffffffffffffffffff1614610d59576040517f08c379a0000000000000000000000000000000000000000000000000000000008152600401610d5090611b07565b60405180910390fd5b600073ffffffffffffffffffffffffffffffffffffffff16600260008473ffffffffffffffffffffffffffffffffffffffff1673ffffffffffffffffffffffffffffffffffffffff16815260200190815260200160002060020160009054906101000a900473ffffffffffffffffffffffffffffffffffffffff1673ffffffffffffffffffffffffffffffffffffffff161415610e2b576040517f08c379a0000000000000000000000000000000000000000000000000000000008152600401610e2290611b73565b60405180910390fd5b6000600260008473ffffffffffffffffffffffffffffffffffffffff1673ffffffffffffffffffffffffffffffffffffffff16815260200190815260200160002060020160156101000a81548160ff02191690831515021790555060019050919050565b60008060009054906101000a900473ffffffffffffffffffffffffffffffffffffffff1673ffffffffffffffffffffffffffffffffffffffff163373ffffffffffffffffffffffffffffffffffffffff1614610f20576040517f08c379a0000000000000000000000000000000000000000000000000000000008152600401610f1790611b07565b60405180910390fd5b600073ffffffffffffffffffffffffffffffffffffffff16600260008473ffffffffffffffffffffffffffffffffffffffff1673ffffffffffffffffffffffffffffffffffffffff16815260200190815260200160002060020160009054906101000a900473ffffffffffffffffffffffffffffffffffffffff1673ffffffffffffffffffffffffffffffffffffffff161415610ff2576040517f08c379a0000000000000000000000000000000000000000000000000000000008152600401610fe990611b73565b60405180910390fd5b600260008373ffffffffffffffffffffffffffffffffffffffff1673ffffffffffffffffffffffffffffffffffffffff16815260200190815260200160002060020160149054906101000a900460ff16611081576040517f08c379a000000000000000000000000000000000000000000000000000000000815260040161107890611daa565b60405180910390fd5b6001600260008473ffffffffffffffffffffffffffffffffffffffff1673ffffffffffffffffffffffffffffffffffffffff16815260200190815260200160002060020160146101000a81548160ff02191690831515021790555060019050919050565b60008060009054906101000a900473ffffffffffffffffffffffffffffffffffffffff1673ffffffffffffffffffffffffffffffffffffffff163373ffffffffffffffffffffffffffffffffffffffff1614611176576040517f08c379a000000000000000000000000000000000000000000000000000000000815260040161116d90611b07565b60405180910390fd5b600073ffffffffffffffffffffffffffffffffffffffff16600260008473ffffffffffffffffffffffffffffffffffffffff1673ffffffffffffffffffffffffffffffffffffffff16815260200190815260200160002060020160009054906101000a900473ffffffffffffffffffffffffffffffffffffffff1673ffffffffffffffffffffffffffffffffffffffff161415611248576040517f08c379a000000000000000000000000000000000000000000000000000000000815260040161123f90611b73565b60405180910390fd5b600260008373ffffffffffffffffffffffffffffffffffffffff1673ffffffffffffffffffffffffffffffffffffffff16815260200190815260200160002060020160149054906101000a900460ff166112d7576040517f08c379a00000000000000000000000000000000000000000000000000000000081526004016112ce90611daa565b60405180910390fd5b6000600260008473ffffffffffffffffffffffffffffffffffffffff1673ffffffffffffffffffffffffffffffffffffffff16815260200190815260200160002060020160146101000a81548160ff02191690831515021790555060019050919050565b6000815183511461134f5760009050611363565b818051906020012083805190602001201490505b92915050565b82805461137590611c2e565b90600052602060002090601f01602090048101928261139757600085556113de565b82601f106113b057805160ff19168380011785556113de565b828001600101855582156113de579182015b828111156113dd5782518255916020019190600101906113c2565b5b5090506113eb91906113ef565b5090565b5b808211156114085760008160009055506001016113f0565b5090565b6000604051905090565b600080fd5b600080fd5b600080fd5b600080fd5b6000601f19601f8301169050919050565b7f4e487b7100000000000000000000000000000000000000000000000000000000600052604160045260246000fd5b6114738261142a565b810181811067ffffffffffffffff821117156114925761149161143b565b5b80604052505050565b60006114a561140c565b90506114b1828261146a565b919050565b600067ffffffffffffffff8211156114d1576114d061143b565b5b6114da8261142a565b9050602081019050919050565b82818337600083830152505050565b6000611509611504846114b6565b61149b565b90508281526020810184848401111561152557611524611425565b5b6115308482856114e7565b509392505050565b600082601f83011261154d5761154c611420565b5b813561155d8482602086016114f6565b91505092915050565b60006020828403121561157c5761157b611416565b5b600082013567ffffffffffffffff81111561159a5761159961141b565b5b6115a684828501611538565b91505092915050565b6000819050919050565b6115c2816115af565b82525050565b60006020820190506115dd60008301846115b9565b92915050565b600080604083850312156115fa576115f9611416565b5b600083013567ffffffffffffffff8111156116185761161761141b565b5b61162485828601611538565b925050602083013567ffffffffffffffff8111156116455761164461141b565b5b61165185828601611538565b9150509250929050565b600073ffffffffffffffffffffffffffffffffffffffff82169050919050565b60006116868261165b565b9050919050565b6116968161167b565b81146116a157600080fd5b50565b6000813590506116b38161168d565b92915050565b6000602082840312156116cf576116ce611416565b5b60006116dd848285016116a4565b91505092915050565b600081519050919050565b600082825260208201905092915050565b60005b83811015611720578082015181840152602081019050611705565b8381111561172f576000848401525b50505050565b6000611740826116e6565b61174a81856116f1565b935061175a818560208601611702565b6117638161142a565b840191505092915050565b60008115159050919050565b6117838161176e565b82525050565b600060408201905081810360008301526117a38185611735565b90506117b2602083018461177a565b9392505050565b600080604083850312156117d0576117cf611416565b5b600083013567ffffffffffffffff8111156117ee576117ed61141b565b5b6117fa85828601611538565b925050602061180b858286016116a4565b9150509250929050565b600060208201905061182a600083018461177a565b92915050565b7f5265717565737465642042616e6b2068617665206e6f204b594320507269766960008201527f6c65676500000000000000000000000000000000000000000000000000000000602082015250565b600061188c6024836116f1565b915061189782611830565b604082019050919050565b600060208201905081810360008301526118bb8161187f565b9050919050565b600081905092915050565b60006118d8826116e6565b6118e281856118c2565b93506118f2818560208601611702565b80840191505092915050565b600061190a82846118cd565b915081905092915050565b7f4e487b7100000000000000000000000000000000000000000000000000000000600052601160045260246000fd5b6000819050919050565b600061195982611944565b91507fffffffffffffffffffffffffffffffffffffffffffffffffffffffffffffffff82141561198c5761198b611915565b5b600182019050919050565b7f5265717565737465642042616e6b20697320626c6f636b656420616464696e6760008201527f206e657720637573746f6d657273000000000000000000000000000000000000602082015250565b60006119f3602e836116f1565b91506119fe82611997565b604082019050919050565b60006020820190508181036000830152611a22816119e6565b9050919050565b7f52657175657374656420437573746f6d65722020657869737473000000000000600082015250565b6000611a5f601a836116f1565b9150611a6a82611a29565b602082019050919050565b60006020820190508181036000830152611a8e81611a52565b9050919050565b7f4966207468652063616c6c6572206973206e6f7420636f6e7472616374206f7760008201527f6e65720000000000000000000000000000000000000000000000000000000000602082015250565b6000611af16023836116f1565b9150611afc82611a95565b604082019050919050565b60006020820190508181036000830152611b2081611ae4565b9050919050565b7f42616e6b2064657461696c73206e6f7420666f756e6400000000000000000000600082015250565b6000611b5d6016836116f1565b9150611b6882611b27565b602082019050919050565b60006020820190508181036000830152611b8c81611b50565b9050919050565b7f52657175657374656420437573746f6d6572206e6f7420666f756e6400000000600082015250565b6000611bc9601c836116f1565b9150611bd482611b93565b602082019050919050565b60006020820190508181036000830152611bf881611bbc565b9050919050565b7f4e487b7100000000000000000000000000000000000000000000000000000000600052602260045260246000fd5b60006002820490506001821680611c4657607f821691505b60208210811415611c5a57611c59611bff565b5b50919050565b7f5468697320746f6b656e20616c72656164792065786973747300000000000000600082015250565b6000611c966019836116f1565b9150611ca182611c60565b602082019050919050565b60006020820190508181036000830152611cc581611c89565b9050919050565b7f52657175657374656420437573746f6d65722069732061646465640000000000600082015250565b6000611d02601b836116f1565b9150611d0d82611ccc565b602082019050919050565b60006020820190508181036000830152611d3181611cf5565b9050919050565b7f5265717565737465642042616e6b20697320616c726561647920626c6f636b6560008201527f6400000000000000000000000000000000000000000000000000000000000000602082015250565b6000611d946021836116f1565b9150611d9f82611d38565b604082019050919050565b60006020820190508181036000830152611dc381611d87565b905091905056fea26469706673582212203df424e869997c7fefd44de9989751f62cd165fbb672d9738001e5bfcfca162864736f6c634300080b0033",
  "immutableReferences": {},
  "source": "// SPDX-License-Identifier: MIT\npragma solidity >=0.4.22 <0.9.0;\n\ncontract DKYCVerification {\n    //'_owner' variable of type address with a public getter function\n    address private _owner;\n\n    constructor() {\n        _owner = msg.sender;\n    }\n\n    // create an 'onlyOwner' modifier that throws if called by any account other than the owner.\n    modifier onlyOwner() {\n        require(msg.sender == _owner, \"If the caller is not contract owner\");\n        _;\n    }\n\n    // Bank struct\n    struct Bank {\n        string bankName;\n        uint256 kycCounter;\n        address bankAddress;\n        bool isAllowedToAddCustomer;\n        bool kycPrivilege;\n    }\n\n    // number of the total bank + kycCounter\n    uint256 private totalCount;\n\n    // Customer struct\n\n    struct Customer {\n        string customerName;\n        string customerData;\n        address customerBank;\n        bool kycStatus;\n    }\n\n    mapping(address => Bank) private _bank; //  Mapping a bank's address to the Bank\n    mapping(string => Customer) private _customerInfo; //  Mapping a customer's username to the Customer\n\n    // addNewBank\n    function addNewBank(string memory _bankName, address _bankAddress)\n        public\n        onlyOwner\n    {\n        require(\n            _checkBank(_bank[_bankAddress].bankName, _bankName),\n            \"This token already exists\"\n        );\n        uint256 kycCounter = totalCount++;\n        _bank[_bankAddress] = Bank({\n            bankName: _bankName,\n            kycCounter: kycCounter,\n            bankAddress: _bankAddress,\n            isAllowedToAddCustomer: true,\n            kycPrivilege: true\n        });\n    }\n\n    // blockBankFromKYC\n    function blockBankFromKYC(address _bankAddress)\n        public\n        onlyOwner\n        returns (int256)\n    {\n        require(\n            _bank[_bankAddress].bankAddress != address(0),\n            \"Bank details not found\"\n        );\n        _bank[_bankAddress].kycPrivilege = false;\n        return 1;\n    }\n\n    //allowBankFromKYC\n    function allowBankFromKYC(address _bankAddress)\n        public\n        onlyOwner\n        returns (int256)\n    {\n        require(\n            _bank[_bankAddress].bankAddress != address(0),\n            \"Bank details not found\"\n        );\n        _bank[_bankAddress].kycPrivilege = true;\n        return 1;\n    }\n\n    // blockBankFromAddingNewCustomers\n\n    function blockBankFromAddingNewCustomers(address _bankAddress)\n        public\n        onlyOwner\n        returns (int256)\n    {\n        require(\n            _bank[_bankAddress].bankAddress != address(0),\n            \"Bank details not found\"\n        );\n        require(\n            _bank[_bankAddress].isAllowedToAddCustomer,\n            \"Requested Bank is already blocked\"\n        );\n        _bank[_bankAddress].isAllowedToAddCustomer = false;\n        return 1;\n    }\n\n    //allowBankFromAddingNewCustomers\n\n    function allowBankFromAddingNewCustomers(address _bankAddress)\n        public\n        onlyOwner\n        returns (int256)\n    {\n        require(\n            _bank[_bankAddress].bankAddress != address(0),\n            \"Bank details not found\"\n        );\n        require(\n            _bank[_bankAddress].isAllowedToAddCustomer,\n            \"Requested Bank is already blocked\"\n        );\n        _bank[_bankAddress].isAllowedToAddCustomer = true;\n        return 1;\n    }\n\n    //addNewCustomerToBank\n\n    function addNewCustomerToBank(\n        string memory _customerName,\n        string memory _customerData\n    ) public {\n        require(\n            _bank[msg.sender].isAllowedToAddCustomer,\n            \"Requested Bank is blocked adding new customers\"\n        );\n        require(\n            _customerInfo[_customerName].customerBank == address(0),\n            \"Requested Customer  exists\"\n        );\n\n        _customerInfo[_customerName] = Customer({\n            customerName: _customerName,\n            customerData: _customerData,\n            customerBank: msg.sender,\n            kycStatus: false\n        });\n    }\n\n    //viewCustomerData\n    function viewCustomerData(string memory _customerName)\n        public\n        view\n        returns (string memory, bool)\n    {\n        require(\n            _customerInfo[_customerName].customerBank != address(0),\n            \"Requested Customer not found\"\n        );\n        return (\n            _customerInfo[_customerName].customerData,\n            _customerInfo[_customerName].kycStatus\n        );\n    }\n\n    //addNewCustomerRequestForKYC\n\n    function addNewCustomerRequestForKYC(string memory _customerName)\n        public\n        returns (int256)\n    {\n        require(\n            _bank[msg.sender].kycPrivilege,\n            \"Requested Bank have no KYC Privilege\"\n        );\n        _customerInfo[_customerName].kycStatus = true;\n        _bank[msg.sender].kycCounter++;\n\n        return 1;\n    }\n\n    //getCustomerKycStatus\n    function getCustomerKycStatus(string memory _customerName)\n        public\n        view\n        returns (bool)\n    {\n        require(\n            _customerInfo[_customerName].customerBank != address(0),\n            \"Requested Customer is added\"\n        );\n        return (_customerInfo[_customerName].kycStatus);\n    }\n\n    // checkBank\n    function _checkBank(string memory _bankOne, string memory _bankTwo)\n        private\n        pure\n        returns (bool)\n    {\n        if (bytes(_bankOne).length != bytes(_bankTwo).length) {\n            return false;\n        } else {\n            return keccak256(bytes(_bankOne)) == keccak256(bytes(_bankTwo));\n        }\n    }\n}\n",
  "sourcePath": "/Users/santuroy/iit/capstone-project/kyc-verification/contracts/DKYCVerification.sol",
  "compiler": {
    "name": "solc",
    "version": "0.8.11+commit.d7f03943.Emscripten.clang"
  },
  "schemaVersion": "3.4.4",
  "updatedAt": "2022-04-12T04:35:32.647Z",
  "networkType": "ethereum",
  "devdoc": {
    "kind": "dev",
    "methods": {},
    "version": 1
  },
  "userdoc": {
    "kind": "user",
    "methods": {},
    "version": 1
  }
}